:100000000060002085000000ED000000EF0000000F
:10001000F1000000F3000000F50000000000000007
:10002000000000000000000000000000F7000000D9
:10003000F700000000000000F9000000E96E000079
:10004000D566000000000000AD6B0000000000005D
:100050000963000019630000296300003963000090
:10006000996E0000CD6E000000000000000000004E
:10007000A5610000000000006166000071660000DC
:10008000FFFF00001049114A114B9B1A40F30580F5
:10009000043BC858D0503FF7FBAF0E480E490F4AFB
:1000A000914200F0048041F8040BFFF7F9BF0948C2
:1000B0000B490C4A914200F0048041F8040BFFF711
:1000C000F9BF09480047000060E20000000000207E
:1000D000980100200000000098010020E846002060
:1000E000005000200060002015010000FEE7FEE740
:1000F000FEE7FEE7FEE7FEE7FEE7FEE7FEE7FEE7D8
:10010000FEE7FEE7FEE7FEE7FEE7FEE7FEE7FEE7C7
:10011000FEE700BF2DE9F04F89B003F0D3FA03F0FA
:10012000DFFA09F07FFF06F0A1F90023C5F2020310
:100130009A8802F4005081B20029F9D00024C5F257
:100140000204A58805F40056B7B2002FF9D10023A8
:10015000C5F21003C022DFF83892DFF83882874EEC
:10016000874D884F83F83C2040F2AD10C2F200006A
:100170000178002978D099F8001079B140F229244B
:10018000C2F200042378002B00F0168240F22820EF
:1001900013220023C2F200003270037040F2BC014F
:1001A000C2F200010C7862B2531C00F003823B786B
:1001B000FF203370387040F2DB11C2F200010C787E
:1001C00040F2A022C2F200025BB21470152B30D8AC
:1001D000DFE813F016002F002F002F002F002F0054
:1001E0002F002F002F002F002F002F002F00660060
:1001F00066002F002F006600E801B20178015C0163
:1002000040F2292403F0F6F8C2F2000403F030F9BA
:10021000002002F0DBFE2478002C00F0E48140F2A4
:100220004830C2F2000012240278347050B201F05B
:100230009BFBD8F800101520884740F2AF13C2F29C
:1002400000031A78002A8FD040F2E414C2F20004AE
:100250002078002888D001F0F7F940F2AD10C2F202
:1002600000000178002986D172B6112403F038FA13
:10027000347003F043FA01F05BFD01F019FF06F062
:1002800027F903F089FA62B640F2AD1240F2A120DC
:100290000123C2F20002C2F20000137003706AE789
:1002A00040F2AF11C2F2000101240C70364940F255
:1002B00034330020C2F200038A1C187418800880AE
:1002C00048808880C8800881108108F0F1FD42F2E2
:1002D000C840C2F2000090F86D3003F1FF3B43B319
:1002E000204602F073FE0BF0010107910BF1FF3A7B
:1002F00008F066FEBBF1000F1BD0079A4AB12046FA
:100300000AF1FF3A02F062FE08F05AFEBAF1FF3F2E
:100310000FD001200AF1FF3402F058FE08F050FE21
:10032000012002F053FEAAF1020A08F049FE002C57
:10033000EFD108F0F7FD2120D8F80030984703F0FE
:10034000D9F800283FF410AF40F29920C2F2000023
:1003500001780024347000293FF46BAF0B4840F261
:10036000846341F207710122C2F20003C2F200016C
:100370001A6004700A7007F0ADFC5AE76C12002096
:10038000541D0020BC0000203603002099020020EC
:10039000280200204C46002005F0EEFE03F07CF918
:1003A0004FF00E0C4FF0405E0CF1010000F516739B
:1003B0005EF82310C0EB0014640004F119030A0E68
:1003C000EA541723591C01EB4102013B00EBC20226
:1003D0005EF822B0DBB25A1C04EB010A4FEA1B6B39
:1003E00002EB420105F80AB000EBC1015EF82110F2
:1003F000013BDBB2090EA218FF2BA954E2D10CF18C
:10040000FF3C5FFA8CFCBCF1FF0FCDD140F21050E5
:10041000C2F20000047864B940F2CC13C2F20003C7
:100420001A7832B940F2E811C2F2000108680028D7
:1004300022DD0B20D8F80040A047012003F006FA87
:10044000D8F800300C20984744F24862C2F200020B
:10045000116801208847012004F0A8FE03F0ECF9A0
:1004600005F078F905F072FD1020D8F80040A0479B
:10047000D8F800302220984740F29B20C2F20000BA
:100480000278002A00F086811522327040F2AC1109
:10049000C2F200010C788CB340F2AD1140F2292277
:1004A00040F29B2340F2AC100024C2F20001C2F2E1
:1004B0000002C2F20003C2F200000C7014701C7043
:1004C0000470B6E640F2AC140020C2F2000402F060
:1004D00009FF2478002C00F0998040F29B20C2F2A2
:1004E000000000781523337000283FF4A2AE40F2DC
:1004F000AC11C2F200010C78002CCDD1042007F021
:100500001DFC642006F074F801F082FC0328C3D0BF
:10051000642006F06DF801F07BFC0328BCD040F2AB
:100520009B2340F2CC101422C2F20003C2F200005E
:1005300032701C7004707CE608F0BAFC42F2C840CD
:10054000C2F2000090F86D104C1E31B3012002F091
:10055000C9FE04F0010B08F033FD04F1FF3AE4B1E9
:10056000BBF1000F09D001200AF1FF3A02F0BAFEF8
:1005700008F026FDBAF1FF3F0FD001200AF1FF3449
:1005800002F0B0FE08F01CFD012002F0ABFEAAF163
:10059000020A08F015FD002CEFD108F0C3FC14236B
:1005A000337046E601F040FCC82006F021F8132223
:1005B00032703EE63378FEE50022C5F202029088F2
:1005C00000F400518CB2002CF9D00022C5F20202D6
:1005D000938803F4005081B20029F9D111243470BA
:1005E00089F80010DAE540F29B11C2F2000191F89F
:1005F00000A0BAF1000F4BD00C7001F089FA40F264
:100600004832C2F20002147022460FE60520D8F8E4
:100610000020904709F0B2F840F2A023C2F2000394
:100620001878002840F0E58140F28061C2F20001B4
:1006300000240C70D8F800200320904740F280631B
:10064000C2F200031978002937D040F2D01340F2EB
:10065000A020C2F20003C2F200001B6840F25C213D
:100660000278C2F200010B80002A40F0D481032BF3
:100670001FDC591C40F29B24C2F2000440F2D0124D
:100680002078C2F20002116000283FF4D2AD2EE7BC
:100690000520D8F80020904709F070F800283DD1D7
:1006A00040F248310120C2F2000189F800000A78C6
:1006B000BCE5132030700021DCE740F2D01444F296
:1006C0004C62C2F20002C2F20004136821600720EB
:1006D000984705F007FC44F24C61C2F200010C6837
:1006E0000920A04702F0ACFF05F03CFD40F2DA1013
:1006F000C2F200000278002A7FF44EAE09F0C6FA7A
:1007000000287FF449AE40F29B24C2F20004207816
:100710001321317000283FF48CADE8E600F0FEFFB5
:1007200040F2A023C2F200031878002840F07B8139
:1007300040F28061C2F200010024D8F800200C7061
:100740000320904740F28063C2F200031A78002A27
:1007500037D040F2D01040F2A022C2F20000C2F224
:100760000002036840F25C211078C2F200010B80A5
:10077000002840F06981022B00F3F88040F2D01489
:1007800040F248320133C2F20004C2F20002236098
:1007900012784BE540F2CC11C2F200010C78002C2B
:1007A00039D04FF40C7006F021FB002005F0DEFE7E
:1007B00040F29B23C2F20003187800283FF439ADC1
:1007C00095E640F2D01444F24C61C2F20001C2F24C
:1007D00000040B6822600720984705F083FB44F271
:1007E0004C62C2F2000214680920A04702F028FF00
:1007F00005F0B8FC40F2DA10C2F20000017871B9DD
:1008000009F044FA58B940F248341121C2F2000408
:10081000317022780AE54D2006F0E8FAC5E705F0C8
:10082000ABFC02F039FF4FF00E0C4FF0405E0CF1C4
:10083000010000F516735EF82320C0EB001464007D
:10084000130E04F119016B541723591C01EB4102DB
:10085000013B00EBC2025EF822B0DBB25A1C04EB93
:10086000010A4FEA1B6B02EB420105F80AB000EBEC
:10087000C1015EF82110013BDBB2090EA218FF2B6B
:10088000A954E2D10CF1FF3C5FFA8CFCBCF1FF0FE4
:10089000CDD140F2A020C2F200000478002C40F03C
:1008A00097800B20D8F80040A047012002F0CEFF2F
:1008B00044F24862C2F20002136801209847D8F857
:1008C00000100C20884702F0B7FF04F043FF05F04A
:1008D0003DFB1020D8F80040A0471320D8F8002096
:1008E000904700F0BBFF00285AD042F2C840C2F245
:1008F000000090F8AC30002B67D1574957484FF4AF
:10090000B6720DF013FB41F62851C2F200010C78CB
:10091000012C52D940F22923C2F200031978002990
:1009200047D040F2D714C2F20004237841F628528F
:1009300041F2682142F242140020C2F20002C2F2E7
:100940000001C2F2000410700860207073BB42F214
:10095000C840C2F2000090F8AC0007F0CFFAA8B986
:1009600040F24833C2F200031A785FE402F058FE06
:1009700040F2D01040F2483100221124C2F20000AF
:10098000C2F20001026034700A784FE4344A4DF636
:1009900080741178C0F20004605C400006F0E6F953
:1009A00040F24833C2F200031A783FE407F0A6FA97
:1009B000CDE7012007F0C2F9B3E742F24212C2F2DA
:1009C000000210780A28ACD9A4E706F0FDF994E7F4
:1009D000022200230F21082000920191029003922D
:1009E00004930593042019211E4A1E2307F0B0F832
:1009F00057E704234FF00F0A4FF0510C4FF0020E4F
:100A00008DE808540494059401201921164A3823CE
:100A100007F09EF808E62046144C0121102207F04A
:100A200017F8236823E604200F21512202238DE8C2
:100A30000F00CDF810A0CDF814A0012019210A4A0A
:100A4000382307F085F873E620460121102206F0CE
:100A5000FFFF064B1B688EE6A82C00209431002077
:100A6000C8240020731D002008170020D00100209A
:100A70002DE9F04F8FB0182202A800210DF05FFA87
:100A8000534B0122534C544E1A70A07870B9B2885F
:100A900002F4005188B20028F7D1B38803F48055DE
:100AA000AAB2002AF1D001F063F9EEE74949484CB7
:100AB0004A4E002501208D70257001F059F9012260
:100AC00086F85120736C02209847284601F050F9AF
:100AD000756C0B20A847F078414B31791A8941EAAF
:100AE00000247078B6785989A51846EA002462185F
:100AF0003C4C1D815A810626751EEEB2FF2E04D095
:100B000033F8165024F81650F6E7374E0F234FF0FF
:100B100030251424013BDBB2FF2B13D01922501EC9
:100B2000C2B2FF2AF6D004FB023735F81700F15C99
:100B300087B20EA800EB810151F8300CC01941F8C2
:100B4000300CECE7294E06256C1EE5B2FF2D0AD0CD
:100B50000EAC04EB8503705D53F8302C92FBF0F182
:100B600043F8181CF0E7224E1F480F2314254FF0BE
:100B70003024591ECBB2FF2B26D0192203F10108D5
:100B80004FF0405C1827013AD2B2FF2AF1D005FBA2
:100B9000023110F803B036F811A034F81190511C4E
:100BA00001910EA901EB8B0B5BF818BC1FFA8AFEB2
:100BB0001FFA89FACBEB0A09DDF804A0F14407FB20
:100BC0000A814CF82190DEE70FB0BDE8F08F00BF3E
:100BD000DD01002044460020000002504C030020AC
:100BE000B41A0020040E0020D8DF00000CE0000042
:100BF000002000302DE9F04FADF20C6D002140F2E5
:100C0000EE220AA80DF09BF900214FF4E062B548EE
:100C10000DF095F900214FF4E062B3480DF08FF923
:100C200000214FF46072B1480DF089F900214FF4B2
:100C30006072AF480DF083F900214FF40772AD48A0
:100C40000DF07DF900214FF48762AB480DF077F984
:100C500000214FF4E062A9480DF071F900214FF432
:100C60006072A7480DF06BF94FF6FF7140F2EE226B
:100C7000C6A80DF064F91822002104A80DF05FF950
:100C8000A04B0022D87B9A73012806D901210324A6
:100C9000D97383F8504002F0CBFC9B4D994C2E7ACF
:100CA000E37A771E207BFA1AE57B111A6943974F86
:100CB000974E3D78317085B901233B7008F0F8F804
:100CC00094F86D702C46A74205D0FFF7D1FE013491
:100CD00008F076F9F7E708F025F94FF0000A8D4F94
:100CE0003C88A2B2924580F28480FFF7C1FE0DF2EB
:100CF000D457894DB9AE4FF000094FF00F083C466C
:100D000008F1FF37B8F1000F4AD03946022008F049
:100D100099F97C4900B28A7B8049029201EB090C67
:100D20007F4900231922039001EB090B511E82B366
:100D3000182000FB02824FF0405050F82220029809
:100D400092B242FA00F25CF8210080184CF82100BF
:100D50000398121AF018B0F830E09645B8BF028632
:100D6000E018B0F830E09645C8BF0286BAF1000F2F
:100D70000AD0E818B0F830E05BF82100C2EB0E0EA4
:100D80000EFB0E004BF82100E8180286023B0A46D3
:100D9000CCE7383DA9F17009323C323EB846AFE7A6
:100DA0006049062616F1FF3608D304AC54F8262015
:100DB00031F81650AB1844F82630F3E75A495B4D2A
:100DC0000F22142412F1FF3210D3192313F1FF3331
:100DD0000AD304FB032035F8107051F82300BEB28B
:100DE000871941F82370F1E77039EBE70AF1010A3E
:100DF00075E74448DFF824C1D0F8D010DFF838E1B7
:100E00000291494C4A484649B946B9AE0DF2D4550B
:100E100000226746474BDFF8248103EB420303932C
:100E200008EB020C1923019213F1FF3333D3B9F805
:100E3000008057F823201FFA88FAB2FBFAF836F838
:100E400013B035F813A02EF81380CAEB0B02FF2A5B
:100E5000A8BFFF22B9F800A00CF8032054F8232003
:100E60001FFA8AFAB2FBFAFAB9F8002020F813A0A8
:100E70001FFA82FA51F823200AF1FF3AB2FBFAFA7C
:100E8000029A1FFA88F8C8EB0208039A41F82380F7
:100E900022F813A0C8E7019A703F1E3A323E323D55
:100EA000703C3838703912F5E17FAEF1380EB1D1AF
:100EB00018481C49062313F1FF3309D30588ACB247
:100EC00004AD55F82320B2FBF4F221F81320F2E729
:100ED00002F006FC02F0ACFB0DF5037D0DF5806D14
:100EE000BDE8F08F4C370020F0060020482100209C
:100EF000142E0020541D0020300E0020383F00200A
:100F000008170020C82400208C1A00209E02002010
:100F100043210020BE000020181A00206C3D002054
:100F200058450020040E0020100D00200020003045
:100F3000243100207811002058240020F81E0020C1
:100F40002DE9F84FDFF894824FF00C094A46002152
:100F50009748984C984D0CF0F2FF0021062240462D
:100F60000CF0EDFF002601230322EB7385F85020DF
:100F7000EB72AF7A2E73AA7202F05AFBFFF778FD7C
:100F8000616C232088476378A178E078227941EA70
:100F9000032342EA0020984228BF0346A8F8003005
:100FA0006379A179E079227A41EA032342EA0020B9
:100FB000984228BF0346ED8EA8F80230637AA17AE2
:100FC000E07A247B09FB05F944EA002241EA032385
:100FD0009A4228BF1346DFF8D8A1A8F8043036F8A3
:100FE000080048440CF00AFD6FA3D3E900230CF07D
:100FF00095FE044638460D460CF000FD02460B46B1
:10100000204629460CF060FD0CF070FF4AF81600EF
:101010000236062EE3D1684C684EE17B778868483B
:10102000794300250160642702F05AFBB42602F0E0
:10103000FFFA01234FF0AA310322E37384F8303022
:10104000E37284F8283084F85020A2722783216448
:101050006164A164E164257384F8245084F8265007
:1010600084F82E6002F0E4FA29464FF4E062554815
:101070000CF065FF544829464FF460720CF05FFF96
:10108000DFF85081514FB8F800004B4E83B29D42BB
:101090002CDAFFF7EDFC0F2394F80EA04C4A99468A
:1010A0004FF0405C4FF0180E5E1EEBB11921481E48
:1010B000B9B100F0010B09FB0B6B17F80BB0BBF1DA
:1010C000010F0CD10EFB01315CF821101FFA81FBDE
:1010D0004BFA0AFB52F82010594442F820100146FE
:1010E000E5E7703A3346DFE70135CCE74FF055349A
:1010F00034647464B464F46402F09AFADFF8D4805F
:10110000324F0024B8F80050AAB294422CDAFFF70C
:10111000AFFC0F2396F80EA02D4A99464FF0405C85
:101120004FF0180E5D1EEBB11921481EB9B100F049
:10113000010B09FB0B5B17F80BB0BBF1000F0CD1D7
:101140000EFB01315CF821101FFA81FB4BFA0AFB00
:1011500052F82010594442F820100146E5E7703A51
:101160002B46DFE70134CDE7194D1A4C1A4800230E
:1011700005EB43071922C61812F1FF320AD3B4F85F
:1011800000E057F822101FFA8EFCB1FBFCF126F8A4
:101190001210F1E7383B13F5527FE9D102F0A0FAC3
:1011A000BDE8F84F02F044BA0000000000C046401D
:1011B000D01A00204C030020C82400208C1A0020E4
:1011C000803300204C3700204821002050DF0000F1
:1011D0006C3D0020BE00002058240020F00D0020AF
:1011E0002DE9F04FADF6542D002140F2EE2261A81A
:1011F0000DF2744B0CF0A3FE0DF10C09002140F22E
:10120000DC5258460CF09BFE002140F27712484613
:101210000CF095FE00214FF4077273480CF08FFE1E
:10122000724C00214FF4607271480CF088FE012668
:1012300003230025E67384F85030A57302F0F8F913
:101240006C48067007F034FE94F86D602C46A64298
:1012500005D0FFF70DFC013407F0B2FEF7E707F009
:1012600061FE1924FFF704FC0F234FF030201421F6
:101270005A1ED3B2FF2B0ED004FB03F51922013AFC
:10128000D2B2FF2AF4D001FB023630F81670AE1845
:1012900009F80670F3E74FF00008CDF80480FFF777
:1012A000E7FB4FF030250F2200211424501EC2B25C
:1012B000FF2A1CD019231E27574303FB02F6013BCC
:1012C000DBB2FF2BF2D004FB032035F81000DFF86F
:1012D00018C1C0B207EB030E0CF80E0006EB030EAC
:1012E00019F80EC08445EAD001210191E7E70029F1
:1012F00041D00F220121531EDAB2FF2A34D0192324
:101300001E261C2706FB02FC03FB02F407FB02FE61
:10131000013BDBB2FF2BEED0334E0CEB0307F55D48
:10132000E61819F80600002D18BF002170B15BF80F
:1013300026700EEB030A97FBF8F061AF37F81660E2
:10134000801B2B4E20EAE07726F81A70E0185BF835
:10135000207009F8005097FBF8F6002561AF27F8D8
:1013600010604BF82050D3E7019810B191BB88462C
:1013700001E0DDF8048008F101080F241926013C82
:10138000E4B2FF2C8BD00220214607F05BFE174F02
:10139000192397F80EC006FB04F704F1010E00B202
:1013A0005D1EEBB2FF2BEAD018215A1C01FB02E2B2
:1013B0004FF0405555F82210FA181FFA81FA4AFAF0
:1013C0000CF55BF82210C0EB050A01EB0A054BF89F
:1013D0002250E5E702F084F90DF5157D0DF5006D5D
:1013E000BDE8F04F02F024B9541D0020C8240020AD
:1013F000482100209E0200202DE9F04FADF66C2D13
:10140000002140F2EE2267A80CF099FD002140F285
:10141000DC520DF28C400CF092FD002140F277126C
:1014200009A80CF08CFD00214FF407727F480CF0E6
:1014300086FD7F4C00214FF460727E480CF07FFDEA
:1014400001260323002584F85030E673A57302F0CB
:10145000EFF87948067007F02BFD94F86D702C4674
:10146000A74205D0FFF704FB013407F0A9FDF7E719
:1014700007F058FDFFF7FCFA0DF5C17102910B461C
:101480000E224FF030241426182706FB072534F8C7
:101490001500D85517F1FF37F7D2013A193B551C03
:1014A000F2D1664E3120716C88471323F45C03F14E
:1014B00010076D4613F1FF337C55F7D24FF000084B
:1014C0005F4EFFF7D5FA029835460E220021142709
:1014D000B446182307FB03264FF0302434F8166077
:1014E00010F803E0F4B2EC54A64518BF012113F143
:1014F000FF33EFD2013A1E3D1938541CE9D164463E
:10150000002959D0029EDFF82CC10DF58B600E2208
:101510004C4D64230DF28C41571903FB02110397C4
:101520000023F5182F7E5FB34FF0140919F1FF392E
:1015300005D30DF1100A1AF809B0BB45F6D1039F87
:101540004FF01C0E97F900A00F6E0EFB0A9B00EBEC
:10155000430ECDF804B00BF1FF3A97FBF8FBBEF950
:1015600030703CF81AA0C7EB0B0EBEF1000FACBFF9
:101570000AEB0E070AF10007DDF804A02CF81A7038
:101580000F6E00EB430E97FBF8F7AEF83070E718DC
:101590003F7E013B2F7600250D66043913F1190FAC
:1015A000BFD1013A32381E3C193E511CB0D1B9F1BD
:1015B000130F31D04FF000080DF28C4608F10108EE
:1015C00006F5AF650E244FF040574FF0180A21463C
:1015D000022007F037FD1649192291F80EC00023AA
:1015E00004F1010E00B2043B13F1680F0FD00AFBA7
:1015F00002E657F82660E9181FFA86FB4BFA0CF64C
:10160000C0EB060B4E6E013A5E444E66EBE7013CC2
:10161000643D631CDBD153E702F062F80DF51B7DDE
:101620000DF5006DBDE8F04F02F002B8541D00202A
:10163000C8240020142E00209E0200204C0300200D
:10164000F81E0020D8DF00002DE9F047DFF8C4A025
:10165000DFF8B890DFF8C080284F294E294D2A4C7A
:1016600004E099F8000041B24B1C05D19AF8003013
:10167000002BF6D1BDE8F087244A137858B207282A
:1016800009D8DFE800F021042F3237080812FFF7ED
:10169000B1FA0121217099F80020072A01D006F043
:1016A00019FBFF2389F80030E0E70121002288F8C8
:1016B000001018208AF8002039703368984799F88C
:1016C0000020072AEBD1ECE7114B01221A6017200A
:1016D0002270316888470020287099F80020072A76
:1016E000DDD1DEE7FFF72CFCD3E7FFF779FD002023
:1016F0002870CEE7FFF780FEF9E700BF99020020CF
:101700004C4600209E0200200717002030210020B8
:1017100084060020E4010020280200202DE9F007C3
:10172000494B93F80B90B9F1000F7AD009F1FF35CE
:10173000E8B2B9F10D0F45B274DD4FF00E0193F828
:101740000A80B8F1000F67D008F1FF36B8F1170F23
:10175000F6B262DD1827A9426CDB7FB276B2C5EB28
:10176000C5027C1C394B06EB8200A41B01F1010C65
:1017700003EB400264000021B74219DBB2F900001C
:101780000223A4F1020AA342CAF3400A01440FD083
:10179000BAF1000F03D0B2F90200042305E032F9D8
:1017A00003A00233D05E51440233A3420144F6D178
:1017B000013538326545DFD189B2254B1A7C501C82
:1017C000C0B2062823F8121031D8187459899889A4
:1017D0001A894018D98880189A8840185988801822
:1017E0001A884118881844F6251182B2C2F2924133
:1017F000A1FB0201501A01EB50011648164A00786D
:10180000C1F38F01D981A2F80090A2F802809180E3
:1018100090B9BDE8F0077047464608F10107FFB2EE
:1018200099E74D4609F1010C4FFA8CF187E7002149
:101830001974CBE70021C0E70B200321C822BDE8C3
:10184000F00706F005B900BF2C020020282900206F
:1018500034030020A00200205C020020394B3A49EA
:101860001A68F0B4002412F0FF000C70374B35D129
:101870001C78002C61D0364B364C93F8C06025782C
:10188000AE4208D2344D93F8C1702E780136F6B2CC
:10189000B7422E704AD33148C28900202070B3F875
:1018A000C600904234D22E4C294A92F8C8002278C1
:1018B0000132D2B2904222702A4A107804D201300A
:1018C0000025C0B22570107093F8C930834228D229
:1018D0000020107003220A70F0BC704718781F4A6D
:1018E0001B4BD28940B9B3F8BC409442D7D21949B6
:1018F000194B08701870EFE7B3F8BE00904212D988
:101900001448047801340470B3F8C6009042CAD376
:10191000144A93F8C9301078114C00258342257081
:10192000D6D30120D8E70B480470EDE70C4B2A70A2
:101930001A700C4B1A700222CDE70848044BC2897A
:10194000ADE700BFA82C0020480300209E01002026
:10195000C82400209A0100209901002034030020AF
:10196000980100209D01002002282DE9F84F56D053
:10197000032844D0012801D0BDE8F88F5C4B1878CB
:10198000002840F0B0805B4B02204FF420515A4CAD
:1019900083F88A0083F89B004FF6EC704FF47A725C
:1019A0000125A3F87200A3F8AE104FF42570A3F838
:1019B000B0104FF4A5712570A3F8B21041245A213C
:1019C000A3F8B400A3F8B6203A20A3F8B820642204
:1019D000A3F88440A3F876201E24A3F87810A3F877
:1019E0007A00222230214FF42030A3F88640A3F859
:1019F0007C20A3F87E10C3F88000BDE8F88F3F4B31
:101A00003F491A78002A5DD00A88501C82B2082A01
:101A10000A8060D03B4B01211970BDE8F88F344D2E
:101A20002E78002E5AD1384E324BB6F88490B6F844
:101A3000868096F88AC096F89B7096F89BA0B6F8B8
:101A4000AE50B6F8B040B6F8B200B6F8B410B6F87A
:101A5000B6204FF0000BA3F8B620B6F8B820A3F8D4
:101A60008490A3F8B820B6F87620A3F88680A3F86F
:101A70007620B6F8782083F88AC0A3F87820B6F8E4
:101A80007A2083F89B70A3F87A20B6F87C20A3F81C
:101A9000AE50A3F87C20B6F87E20D6F88060A3F87C
:101AA0007E20154AC3F880604FFA8AF682F800B0AB
:101AB000A3F87260A3F8B040A3F8B200A3F8B41082
:101AC000BDE8F88F0888421E90B208800028A1D196
:101AD000012119709EE7002119709BE70020132156
:101AE00005F0E4FE9FE70020112105F0DFFE4AE744
:101AF000A0020020C82400209E0100209C0000209D
:101B0000A00100209B010020643E00200000000096
:101B1000F8B54F4B93F830502DB14E480278002A5B
:101B200040F08980F8BD4C4C4C4922780E7A42F046
:101B3000010020702778FF2265F341072770217884
:101B400065F382012170207840F008072770217822
:101B500065F3041121702078414965F34510207028
:101B60002778098865F3861727701A2066700A2778
:101B7000B426A270E2706671A571E5716572A072FB
:101B8000E57225736773A67B01EB410746F0010000
:101B9000A073A67B988E46F00206A673E67BC1EB87
:101BA000C70146F0010601EB8101E6730918588E62
:101BB0008EB222740BF022FF23A3D3E900230CF092
:101BC000ADF80CF093F9C0F30722C3B2304662744B
:101BD000A3740BF013FF1CA3D3E900230CF09EF8B1
:101BE0000CF084F9C0F30721C0B2E1742075627D66
:101BF000152065F305026275A37DA26C65F30103F0
:101C0000A375A17D65F30511A175E37D65F301035E
:101C1000E375E17D65F30411E175E37D65F345133B
:101C2000E375217E192365F305012176EF216376A3
:101C3000A1769047F8BD002002219F22BDE8F84020
:101C400005F006BFAFF300803333333333B3364090
:101C5000C8240020A00200204C0300208C1A002081
:101C6000A0010020AFF3008040F24C33C2F2000329
:101C700000221A605A609A60DA601A615A619A61A9
:101C8000DA611A625A629A62DA621A635A639A6372
:101C9000DA631A64704700BF821E062A10B50DD998
:101CA0000A4931F810200A49012A09D0094B185C69
:101CB00004F0C4FD04460648C26C9047204610BD9F
:101CC000044C205C04F020FEF4E700BF3400002048
:101CD0004C0300200000002038B5831E062B04466C
:101CE0000ED9104DE86C80470F49104B31F8142085
:101CF000185D012A294610D0BDE8384004F04EBED8
:101D00000A4A0949105C31F81410022C0CBF032256
:101D10000222BDE8384004F0E7BEBDE8384004F0D8
:101D2000A7BE00BF4C0300203400002000000020AC
:101D300040F24C3341F6D941C2F20003C0F2000137
:101D4000596441F6994041F669410022C0F2000011
:101D5000C0F2000183F85020986483F85120D964C0
:101D600083F8522083F8532083F85420704700BF33
:101D700070B5254C00F001062378244A43F0010099
:101D800020702178157841F0020323702078002D0F
:101D900014BF0325022540F0040121702378A26CB2
:101DA0006FF3C30323702178212041F010032370C7
:101DB000217866F345112170237865F3871323702A
:101DC0009047012004F02CFC2078A26C40F0010127
:101DD00021702378212043F002012170237843F001
:101DE0000401217023786FF3C303237021786FF30C
:101DF00004112170237866F345132370217865F36D
:101E000087112170904770BD4C03002029020020EB
:101E100010B540F24C34C2F20004636C13209847B2
:101E2000E07800F0070010BD42F2C84370B4C2F27F
:101E300000034FF4E1565E8640F6C41640F2544566
:101E40009E865A269E72DD8303261D84322583F8E2
:101E50006A601D834FF6FF7605F5FA750121A3F838
:101E6000C660A3F8765040F24E564FF4AF7500228C
:101E70000C24D973997319719E82A3F87850A6F532
:101E8000A0760A2583F8291083F8241083F82610F9
:101E90000B2183F8512083F8AC209E83A3F87E5059
:101EA00083F88A2083F82C4083F82D4083F82A2079
:101EB00083F82810A3F89020A3F8922083F89420A8
:101EC000A3F89620A3F8982083F89A2070BC01F01C
:101ED000AFBB00BFF8B55F4B5F4E1A7800F001074B
:101EE000317867F300021A70187800297FD040F02B
:101EF00002005A4D18701C7895F86B2062F3051497
:101F00001C701978042241F0400018705C78298A0E
:101F100062F306045C70002976D048F63964C3F693
:101F2000E304A4FB0101C1F347009870DA78688AE2
:101F30006FF3C712DA70002864D048F63961C3F62F
:101F4000E301A1FB0042C2F34604D878A98A64F3F6
:101F50000600404AD87000294ED048F63964C3F6CE
:101F6000E304A4FB014011794008C0F3002464F3AA
:101F700000011171C0B2EA8A5871002A3AD048F6BD
:101F80003961C3F6E301A1FB0214C4F346009A7958
:101F9000012160F306029A71D879032461F30300EA
:101FA000D871DA79052060F30612DA711A7AD3F85B
:101FB00048C064F303021A72187A64F307101872A7
:101FC0005A7A062464F303025A725A7A0E2042F0B7
:101FD00010025A725A7A1F4C42F020025A729A7AB0
:101FE00061F306129A72E04733787BB9F8BD61F36A
:101FF00041007EE70120CAE71479012061F3000463
:102000001471B8E70124A0E701208EE72078297831
:1020100067F3000020702278102067F341022270DD
:102020002378A26C6FF38203237023786FF3C303CA
:10203000237023786FF30413237023786FF3451311
:10204000237023786FF3C713237061700421A1708C
:102050009047F8BD4C03002029020020C82400202E
:10206000F8B50120FFF736FF40F24C343220C2F2BF
:10207000000404F0D5FA182232232370A16C627098
:10208000122088470127002602258B202070A36C90
:1020900067701020A670E57098470B212170A26C24
:1020A00067701020A670E5709047F8BD0000000032
:1020B0002DE9F04FDFF860B38FB09BF80030D24CC1
:1020C000002B00F0018601202070A56CA8479BF82A
:1020D0000060002E40F0F385676C3120B847CB4993
:1020E0000023E05C5D5C5A1C531C854240F0D8859F
:1020F000A65C8F5CB74240F0D385142BF1D1DFF89A
:102100001CA39BF800309AF80F10DAF85450DAF854
:1021100058E0DAF85C80DAF86060DAF86470002B76
:1021200000F09D85002318465A1CE0540233142BFE
:10213000A054F9D1A16C3120884723789AF8302037
:1021400043F00103237023789AF82B1043F0020325
:10215000237023789AF82A0062F38203237023788D
:102160009AF8242061F30513237023789AF8251038
:1021700060F387132370637802F00F0242EA0112C2
:1021800062F304039AF8262063709AF82710A37864
:1021900002F00F0242EA011262F30403A370E37833
:1021A000012767F30403E37023799AF82D1067F38E
:1021B0000403237163799AF82C2061F3030363719C
:1021C00063799AF82E1062F3071363714FF6D27396
:1021D000CFF6FF73A2795B1A03F03F0363F30502A6
:1021E000A271E2799AF8280063F30502E2719AF885
:1021F0002910237A00F00F0242EA011262F304036D
:102200002372637A9AF82F202F2062F301036372FE
:10221000A37A9AF868204FF47A7562F30203A372E6
:10222000A36C98472378A26C6FF300032370237884
:102230000F206FF3041323706378754E67F3010367
:1022400063708E23A370E378DFF8BC8143F003034F
:10225000E370E3786FF38203E370E37867F30513C9
:10226000E370E37867F38713E370904723789AF875
:102270000F203B4323702378BAF8180043F0100373
:102280002370637802EB420262F3060305FB00F061
:1022900063700BF0B3FB5AA3D3E900230BF03EFDB0
:1022A0000BF024FEA378BAF81A70C0F3014262F36F
:1022B0000103C0F30721C2B205FB07F0A370E17070
:1022C00022710BF09BFB4EA3D3E900230BF026FDFC
:1022D0000BF00CFE63797788C0F3014262F30103CF
:1022E000C0F30721C2B205FB07F06371A171E2716F
:1022F0000BF084FB42A3D3E900230BF00FFD0BF09E
:10230000F5FD237AB788C0F3034262F30303C0F3F9
:102310000721C2B205FB07F023726172A2720BF0B3
:102320006DFB37A3D3E900230BF0F8FC0BF0DEFDC7
:10233000E37ABAF82270C0F3034262F30303C0F3F6
:102340000721C2B205FB07F0E372217362730BF041
:1023500055FB2BA3D3E900230BF0E0FC0BF0C6FDEB
:10236000A37BC0F3014262F30103C0F30722C0B2B2
:10237000A373E2732074637C6FF306036374F088C5
:1023800005FB00F00BF03AFB1DA3D3E900230BF093
:10239000C5FC0BF0ABFDA37CC0F30342C0F30721E7
:1023A00062F30303C2B2A3741120E174A36C22751B
:1023B000984723789AF8501043F00203237022784C
:1023C000144B61F30712227062781978122061F3BE
:1023D000871262706278597861F3051262706278D0
:1023E000997861F3830262706278D97861F30102AF
:1023F0006270A278197961F38712A27010E000BFB1
:102400000000000000C046404C030020E8DF000050
:102410008C1A0020FCDF000029020020C8240020C4
:10242000A278597961F30512A270A278997961F3C3
:102430008302A270A278D97961F30102A270E278D6
:10244000197A61F38712E270597AE27861F3051222
:10245000E270E278997A61F38302E270E278D97AE5
:1024600061F30102E2702279197B61F38712227114
:102470002279597B61F30512227121799A7B0B46EF
:1024800062F383032371A36C9847BAF8362023784C
:10249000C2F3012161F30103D2B223706270BAF872
:1024A0003820A378C2F3012161F30103D2B2A370F3
:1024B000E27023799AF83A2062F301032371BAF8A3
:1024C0003C206379C2F301209BF8001060F3010304
:1024D000D2B26371A271002900F0D4830D250427C4
:1024E00088F807502772627A03206FF30102627244
:1024F000A36CA0721420984721789BF8005041F0FB
:102500000107CD4B2770002D00F0C583187840F0EF
:102510000201197025789AF830704FF01A0967F3A4
:10252000820525702378D7F1010238BF002262F3BB
:10253000C30323702078317A6FF30410207027785A
:1025400000256FF3451727702278FF236FF386125B
:102550002270B42061700A21A370E3706071A571CC
:10256000E571657284F80A90E57225736173A77B43
:10257000BAF8320047F00102A273A17B192741F09B
:102580000202A273E17BDFF8B08241F00102E27344
:1025900023740BF033FAA6A3D3E900230BF0BEFBA0
:1025A0000BF0A4FCC3B2C0F30721BAF83400617485
:1025B000A3740BF023FA9EA3D3E900230BF0AEFB28
:1025C0000BF094FCC0F30722C0B2E2742075617D69
:1025D000152065F305016175A37D65F30103A375FE
:1025E000A27D65F30512A275E17D65F30101E17538
:1025F000E37D65F30413E375E27D65F34512E2754F
:10260000217EEF2265F3050121766776A36CA27621
:102610009847DAF840C0DAF844E0CCF307205FFAD4
:102620008CF301902370CCF30740019B04906370FE
:102630004FEA1C6C049BCDF814C0A3705FFA8EF0B7
:10264000059B0690E370CEF30720069B079023714D
:10265000CEF30740079B0890DAF8481063714FEA01
:102660001E6E089BCDF824E0A371C8B2099B0A90A6
:10267000E371C1F307200A9B0B9023720B9BC1F3FC
:102680000740090EDAF84C200C900D9163720C9BF8
:10269000C2F3072EA3720D9B5FFA82FCC2F30741BF
:1026A000120EE372172084F80CC084F80DE0A173B9
:1026B000E273A16C25746574A574E574884720786D
:1026C000A26C65F3000020702378182065F34103A5
:1026D0002370217865F382012170637865F301032B
:1026E0006370617865F305116170904720789AF8FE
:1026F0000DC040F00102227021789AF80B3041F0B1
:10270000020020702178367A41F00402227021788C
:102710009AF80C006CF3C30121702178F61A65F366
:10272000041121702178321A65F345112170207847
:10273000561E40F0400121702078B2B240F0800671
:1027400026706178C2F303200133DEB2D2B260F3A7
:1027500003016170A270E670217960F303013846CD
:10276000032721716271A16CA671E57125726772F0
:10277000884720785B2240F00103B6217D27237033
:10278000A66C65704846A270E57021716771B0470C
:1027900020789BF8006040F0010323702278AE425D
:1027A00014BF0327022742F0020121702078A66C93
:1027B00040F0040323702278212065F3C3022270C5
:1027C000217841F010032370227865F345122270BE
:1027D000217867F387112170B047012003F020FFB3
:1027E0002078A66C40F0010323702278212042F06B
:1027F00002012170237843F004022270217865F3EE
:10280000C3012170237865F304132370227865F3E4
:1028100045122270257867F387152570B047277811
:102820009BF8000047F0010608E000BFAFF300800E
:102830003333333333B336404C0300202670002843
:1028400000F0228298F8003043F0020288F800205D
:1028500025789AF86970012667F38205257020783B
:1028600000256FF3C300207061784FF00E0E66F301
:10287000010161704FF07409802705224FF025088F
:102880007821A570CDF80CE0E270A36C257102925E
:1028900065712A20A171E57184F808E084F8099037
:1028A000A57284F80B80277398472078DDF80CC058
:1028B0007821062366F301002070A26C65702B203E
:1028C000A370E57025716171A57184F807C084F863
:1028D0000890657284F80A80E77290472078DDF8E6
:1028E0000CC00722782366F3010020700392657004
:1028F0002C20A270E57025716371A57184F807C062
:1029000084F80890657284F80A80E772A76CB8476B
:102910002178082366F3010121702078039965F37B
:1029200087003C2720706570A370E570D023257167
:102930006771A1710F27A021E371A26C27722D206E
:10294000617290472078029A9AF86A1062F3030045
:1029500020702778A36C47F01000207062782E203A
:10296000324362706778DFF8189347F002026270B2
:102970006278C24F65F383026270627861F3051278
:102980006270617865F3871161709847636C2846BF
:1029900098479BF80000002840F086813E7899F81F
:1029A000535065F300063E703A7899F8521061F37F
:1029B00041023A703B7899F8006043F004053D709D
:1029C0003A7860F3C3023A70397860F304113970D1
:1029D0003B7860F345133B703D7860F3C7150420E6
:1029E0003D707E70B870A76C1020B847032121702D
:1029F0006378A56C6FF30413637062781C206FF327
:102A000001026270A84720780A266FF30000207048
:102A100027784FF0160B47F00201217023784FF012
:102A2000440943F00405257062784FF015084FF013
:102A3000E00C66F306026270A76C84F802B002969E
:102A400084F80390CDF80CC084F804801D2084F82D
:102A500005C0B8472078DDF80CC06FF30000207087
:102A60002678A36C46F00201217025781E2045F0DF
:102A7000040222706178029D012765F306016170EE
:102A800084F802B084F8039084F8048084F805C0C8
:102A900098472078DDF80CC06FF300002070227892
:102AA000A36C42F00201217094F800E01F204EF068
:102AB000040222706178029AF02662F306016170C6
:102AC00084F802B084F8039084F8048084F805C088
:102AD00098472078A26C38432070237824206FF325
:102AE00041032370217803236FF3041121707D21AA
:102AF0006370A170E37890256FF30303E37027718F
:102B000090472078A26C6FF3000020706178252038
:102B10006FF300016170A770E3786FF30003E37057
:102B200027716671A1796FF30001A171E7712572B8
:102B300090472078A26C6FF3000020706378262005
:102B40006FF300036370A770E1786FF30001E17029
:102B500027716671A3796FF30003A371E771257282
:102B600090472078A26C6FF30000207061782720D6
:102B70006FF300016170A770E3786FF30003E370F7
:102B800027716671A1796FF30001A171E771257258
:102B900090472078A26C6FF30000207063782820A3
:102BA0006FF300036370A770E1786FF30001E170C9
:102BB00027716671A3796FF30003A371E771257222
:102BC00090479AF85100FFF785F994F8250094F89A
:102BD000251002090D3262F3071184F82510A36C49
:102BE000322098470FB0BDE8F08F012865D0022849
:102BF00000F0998003280CBF32463A4603F00300E8
:102C0000C00022FA00F2D2B2B2FBF1F001FB1022B6
:102C100012F0FF0F0CBF4FF0000C4FF0010C60449E
:102C20005A1C5FFA80F9C2F3850004F80390E0B9FA
:102C3000284602F00303DB0020FA03F0C0B2B0FB29
:102C4000F1F301FB130010F0FF0F0CBF0020012077
:102C5000C318D8B2531C142BA0543FF46BAAC3F36F
:102C600085000028C1D12A46C8E7012823D00228C0
:102C700057D003280CBF30463846DAE74C03002013
:102C8000C824002007252AE498F8001060F34101C9
:102C900088F80010DCE51A7865F341021A7039E40F
:102CA000DFF888A0FFF749BA0B223A707E7002263F
:102CB000BD70FE7097E67046BBE772469EE7C8207F
:102CC00003F096FCFFF708BA01202070A16C88473A
:102CD0000022C5F20202908800F40055AEB2002E28
:102CE000F9D00027C5F20207BB8803F400518AB26D
:102CF000002AF9D1202003F07BFC0020C5F202005D
:102D0000858805F40056B7B2002FF9D00021C5F22E
:102D100002018B8803F4005290B20028F9D1FFF72A
:102D2000D2B9404685E7424668E700BFC824002084
:102D30002DE9F04FDFF88882954F98F90030012295
:102D4000012B40F2DD11387808BF7B78FC7883B026
:102D5000C2F2000101900A7008BF0193002C00F03C
:102D60000C81DFF860A28B4C0022CAF80020227090
:102D7000DFF82CB2884D894EDFF84C920AE0DAF881
:102D8000000048F28043421CC0F21E039A42CAF877
:102D9000002028D8A97861BB207850BB0023C5F259
:102DA0000203988800F4005290B220B9998801F487
:102DB00080539AB2A2B930780028E0D0FFF728F803
:102DC000002800F08A80F9780029D8D1019A4DF6C0
:102DD0008070C0F20000835C580804F007F8CEE76A
:102DE000FEF7C6FFE7E7012004F0A8FFA978002955
:102DF000D2D0FB78002B00F0BD8040F2DD119BF8B3
:102E000000200020C2F20001A87008705AB398F99F
:102E10000030634A012B634B1070187808BF7D782F
:102E200040F0010218BF3D781A701A78996C42F090
:102E300002021A701A78102042F004021A701A78EE
:102E40006FF3C3021A701A786FF304121A701A78AB
:102E50006FF345121A701A786FF3C7121A700422B2
:102E60005D709A7088472378A3BB4F4F4FF00E09CF
:102E70004FF04056C9EBC904A50005F1180009F14F
:102E8000010437F8101004F5167246F822101723C3
:102E9000581EC2B2511C581C05EB020AEB18013A2D
:102EA00037F8138000EB400C01EB410137F81A00B2
:102EB000D3B204EBCC0C04EBC101FF2B46F82C8001
:102EC00046F82100E4D109F1FF395FFA89F9B9F137
:102ED000FF0FCFD103B0BDE8F08F40F2A021C2F2C6
:102EE00000010A78FF2188F8001040F2A811C2F210
:102EF00000010860002A47D199F800000023012250
:102F000088F800308BF8002080B144F2D061274B64
:102F1000C2F2000108781A78824221D024490B7845
:102F200083421DD0234A1178814219D099F80000BC
:102F300000283FF424AF44F2D0631F49C2F20003DB
:102F40001A78087882427FF41AAFFF23002089F8AC
:102F5000003003F00BFB1349002281F850200EE7EC
:102F6000104B00200122FF2183F85000227089F8C5
:102F7000001004E703F068FF3FE7104D019EAB5DD2
:102F8000580803F033FFECE60E2104F08FFCB3E7A2
:102F9000C82400202902002044460020A30200206B
:102FA0009D0200204C030020CC330020B6000020FE
:102FB000B5000020C0000020D901002080DF000003
:102FC000BD00002024290020B40000202DE9F04F8E
:102FD000DFF8FC92DFF8FC8299F9003083B001221F
:102FE000012B40F2DD11009008BF98F8013098F8ED
:102FF000000098F80340C2F2000101900A7008BF77
:103000000193002C00F04381DFF8CCB2A54C0023E3
:10301000CBF800302370A44FA44DA54EDFF8BCA21E
:103020000AE0DBF8000048F28043421CC0F21E03B5
:103030009A42CBF8002029D8AA786ABB217859BBDC
:103040000022C5F20202918801F4005080B220B93A
:10305000938803F4805291B2A9B930780028E0D067
:10306000FEF7D6FE002800F0958098F80320002A8D
:10307000D7D101984DF68071C0F200010B5C580861
:1030800003F0B4FECDE7FEF773FEE6E7012004F09F
:1030900055FEAA78002AD1D098F80300002800F045
:1030A000F38040F2DD113A780023C2F20001AB70E8
:1030B0000B706AB37C4A99F9000013707D4B0128AC
:1030C000187808BF98F8015040F0010218BF98F82E
:1030D00000501A701A78996C42F002021A701A782D
:1030E000102042F004021A701A786FF3C3021A70AB
:1030F0001A786FF304121A701A786FF345121A7067
:103100001A786FF3C7121A7004225D709A7088479C
:103110002378002B3BD1DFF8C8C1674E4FF00E0873
:103120004FF04051009CC8EBC80908F101024FEA7A
:103130008909002C70D109F118073CF8175002F5E5
:10314000167441F824501723581EC0B25D1C441C4D
:1031500009EB030A09EB000301383CF81A7005EB90
:10316000450B04EB44043CF81350C3B202EBCB0B09
:1031700002EBC404FF2B41F82B7041F82450E3D13B
:1031800008F1FF385FFA88F8B8F1FF0FCAD103B031
:10319000BDE8F08F40F2A022FF21C2F2000289F8C0
:1031A0000010127840F2A811C2F200010860002A53
:1031B00074D19AF800000023012289F800303A7097
:1031C00080B144F2D0613D4BC2F2000108781A7818
:1031D00082424FD03A490B7883424BD0394A11781A
:1031E000814247D09AF8000000283FF41AAF44F219
:1031F000D0633549C2F200031A78087882427FF41E
:1032000010AFFF2300208AF8003003F0AFF92949FE
:10321000002281F8502004E709F1180536F81570EE
:1032200002F5167041F8207017235C1EE0B25D1C99
:10323000441C09EB030A09EB0003013836F81A7045
:1032400005EB450B04EB440436F81350C3B202EB14
:10325000CB0B02EBC404FF2B41F82B7041F8245038
:10326000E3D108F1FF385FFA88F8B8F1FF0F7FF477
:1032700059AF8CE70F4B00200122FF2183F850004B
:1032800022708AF80010CCE603F0DEFD09E70F4D4E
:10329000019EAF5D780803F0A9FDB5E60E2104F0AC
:1032A00005FB86E7290200209D02002044460020FD
:1032B000A30200204C03002070120020B600002062
:1032C000B5000020C0000020D901002080DF0000F0
:1032D000BD000020C824002024290020B4000020C4
:1032E000CC3300202DE9F74F00214FF46072804667
:1032F00038480AF024FE00214FF4607236480AF084
:103300001EFEFEF7ADFE4FF4D27003F06FFD334F9B
:10331000334EBD78314C95B9337863B1FEF778FD03
:10332000032804D12F490122A5700A7050E04FF400
:10333000D27003F05BFD002003F018F9E9E70020EC
:10334000FEF7C8FD03F080FD0022A2700F24013CAF
:10335000E4B2FF2C3CD0244890F8BA3023B10020CE
:10336000214605F06FFE82B21C276743DFF880A07C
:1033700019234FF0140B661C4FF040550192591E53
:10338000CBB2FF2B22D00BFB0340184907EB030CF9
:1033900031F810200F48019992B220F81C20501AE1
:1033A0000D4980B203F1010E4FF0180921F81C00FD
:1033B00009FB0E6CB8F1000F02D045F82C2001E09B
:1033C00045F82C00F8182AF81020D8E7019ABEE733
:1033D000BDE8FE8F70120020CC3300204446002050
:1033E000A3020020AC010020C824002000200030EF
:1033F0000817002038B5184B184C1A78184823784D
:1034000081785BB27AB95A1C0DD0164AC1EB011112
:1034100010688900814213DD0130012B10600ED04D
:1034200081420FDD38BD0F4A002515609D4212D044
:103430000D4B197841B90D4B01202570187038BD1E
:103440000125F3E70125F3E705F10E020020D1B2D3
:1034500004F02CFAEFE738BDA4030020BD000020E3
:10346000C8240020A8010020A00200209D02002006
:103470002DE9F0471B4A82B013681B4E13B9306820
:10348000000122D5194DDFF868800121AA4288F891
:10349000001011D2134C05F1140A002701E098F82E
:1034A0000010C4EB0A09B9F1140FA8BF4FF01409BA
:1034B00071B94C44AC42F2D331680B4B090100D4D2
:1034C000FEE71A6822F00060186002B0BDE8F087DD
:1034D00022460097019700205FFA89F1022304F049
:1034E0002DFAE6E700500020B8000020EC5F002035
:1034F000A00200202DE9F04F404E414D89B0002040
:103500003378002B70D02C7864B921464FF4607268
:103510003C480AF014FD21464FF487623A480AF00D
:103520000EFD5DE0FFF704FC3848394990F80EA025
:1035300038480F224FF040594FF018084FF0140C44
:10354000571E32B319240792631EF4B1079A08FB81
:10355000042459F824B00CFB03741FFA8BFE4EFAB6
:103560000AFB2D4A52F82440ABEB144231F913B058
:10357000934502DA21F8132005E030F913B09345A2
:10358000C8BF20F813201C46DEE738383C393A46DD
:10359000D6E722490A787AB105200F2152234FF04D
:1035A000020E8DE80B40002304930593032019219C
:1035B000154A3C2304F0CCFA1848017881B1052261
:1035C0000F234FF09A0C4FF0020E8DE80C500022A2
:1035D00004920592032019210A4A382304F0B8FA0C
:1035E0003078287001208BE70449054B0A7880F079
:1035F00001001A7009B0BDE8F08F00BFDE010020A5
:103600009F020020142E0020300E0020C82400202D
:10361000781100202431002000400030A00200205A
:1036200008B502F0C3FB0020BDE8084004F066BC0A
:1036300008B500F063F8BDE80840FEF739BD00BFEB
:103640004FF040531149D3F8382910B4D3F89809F2
:10365000D3F83C49D3F89C290968C2F307428A424F
:1036600011DDC0F3074090420DDBC4F307449442E0
:1036700009DBD3F89C490648A1B20124047005482F
:103680000280C3F89C1910BC704700BF3421002091
:10369000A2010020A4010020084B1A786AB14FF063
:1036A00040520748D2F89C19B0F9000089B241EAAB
:1036B0000040C2F89C0900221A707047A201002045
:1036C000A401002043F664604EF28C1108B5C0F2EC
:1036D0000001D422C2F200000AF028FC08BD00BF9D
:1036E00042F2C84043F6646108B5C2F20001D42238
:1036F000C2F200000AF01AFC08BD00BFF8B542F2A1
:10370000C843C2F20003D98BDD7B9C8B91FBF5F0A3
:10371000621A86189F7AB1B2B3F812E001FB07F77C
:103720001E8AB3F816C09A8A7644B3F820E006EBF6
:103730004C0641F68C2302EB420C44F24C62C2F27E
:10374000000366449EFBF5F597FBF4F4C2F2000219
:10375000988059801E80DD801C7211680020884787
:10376000F8BD00BF43785AB20D2A01DC591C4170E4
:1037700003785AB2002A01DD591E0170C3785AB28B
:10378000172A01DC591CC17083785AB2002A01DD66
:10379000591E8170704700BF2248F0B4B0F9A010E4
:1037A00048F68904B0F99E20C8F6880448F21F53F1
:1037B00084FB0156C5F2EB1383FB02577418D5172F
:1037C000CE17C5EB2717C6EB2414174E174B3DB287
:1037D0000027376090F8AD00192624B21E600F262E
:1037E0005E609D60DC60C0B91148124C02602160CF
:1037F00048F21F5402EB4202C5F2EB1484FB0210A4
:10380000D117C1EB20144FF458624FF04050002103
:103810005C611C61F0BC0AF092BB0548016005497F
:103820000A60E5E7C8240020A82C0020981A002090
:10383000881A0020EC06002042F6A840C2F20000E0
:1038400000214FF4B6720AF07ABB00BF2DE9F04FA9
:10385000DFF8C0A2ADB000214FF460720E90A64810
:103860000AF06DFB00214FF4B67250460AF067FB78
:10387000A2497F22FF238AF86A218AF868218AF800
:103880006B318AF869318AF866218AF864218AF8EE
:1038900067318AF865318AF862218AF860218AF8EE
:1038A00063318AF861318AF85E218AF85C218AF8EE
:1038B0005F318AF85D318AF85A218AF858218AF8EE
:1038C0005B318AF859318AF856218AF854218AF8EE
:1038D00057318AF855318AF852218AF850218AF8EE
:1038E00053318AF851318AF84E218AF84C218AF8EE
:1038F0004F318AF84D318AF84A218AF848214878B0
:103900008AF84B3144B20D2C8AF849318AF84621A5
:103910008AF844218AF847318AF845318AF84221E9
:103920008AF840218AF843318AF841318AF83E21E9
:103930008AF83C218AF83F318AF83D318AF83A21E9
:103940008AF838218AF83B318AF839318AF83621E9
:103950008AF834218AF837318AF835318AF83221E9
:103960008AF830218AF833318AF8313103DC441C7B
:10397000E5B24D706CB20A784FFA82FEBEF1000FCC
:1039800007DD531E5D485FFA83FC80F800C04FFAE4
:103990008CFE91F803804FFA88F5172D06DC08F1AC
:1039A0000108564A5FFA88F882F8038089784BB29A
:1039B000002B03DD01395148C9B281707445A3461B
:1039C000C0F2D4854E4E4F4A96F9009096F9010008
:1039D00096F9027096F903400BEB09064A4B0BEB84
:1039E00000050136241A381A92F9037010962293B2
:1039F000099792F90030109F4FFA88FC92F90280E3
:103A000092F90120CDF84CC00C92A7EB0712C0EB45
:103A100000173E48CDF82C800068DDF84C802990D6
:103A200022980135408ACBEBCB060A90384849B240
:103A3000C5EB051508EB860614916D0000EB4601F9
:103A40007F0012950F911797099D0B990C9FC4EB5E
:103A50000414520064001192169403EB0802E81A51
:103A6000CC1ACE44FB1ACDF854E0189219901A944F
:103A70001B93139ADDF850C06245C0F297810BF199
:103A8000010410981899C4EB041541F6545740F6F8
:103A9000306E02EB4503C0EB00164A1CC2F2000771
:103AA000C2F2000EDC1902EB46050EEB4306149B36
:103AB0001299169A581E05EB070804F101098F1890
:103AC000129D179C19990C9011982B191D97DDF8D0
:103AD00044C047181A9D11981B9C0CEB050E011948
:103AE0001C93CDF88CB0139B00221E97CDF87CE080
:103AF0002091C34683E000BF48210020843300208A
:103B000078DF00007CDF00002C0200203421002040
:103B1000A0250020140500200E9D002D00F03E8100
:103B2000B6F90200E1B20AEB810801F1100C5AF873
:103B30002C50D8F80470239C00FB047700FB03543E
:103B40004D004AF82C406C180B950AEB8405C8F818
:103B50000470B5F87C7001F14C04C719DDF82880B9
:103B60001AF924E00A97B5F88270CDF834E007F12D
:103B70000C0C08F1010E1FFA8EF8A5F882C0DDF8D2
:103B800034E0DDF88CC00A9FE645A5F87C70CDF8DE
:103B9000288005DD40F21455C2F2000505F824C066
:103BA0000AEB840595F901E0DDF88C80C645BCBFC1
:103BB00047466F700AEB840797F902C00AEB84044A
:103BC000DDF82CE094F903509C457144C8BFBB70EC
:103BD0009D420AEB8107B8BFE370B7F97E407837A2
:103BE000A04203DDF88023987B7238720C9C013B65
:103BF000023A023EA3420BF1FF3B00F0D58019F8D8
:103C00000179A7F110056F2D40F239847C1EE0B2D6
:103C10000E2881D90E99002900F0C380B6F9020060
:103C20000028E3DD1E9DDDF8748005EB0B0414F81D
:103C30000870791E0E2900F2278401214FF0030C31
:103C40004FF0020E01FA07F58DF8A870032404273F
:103C5000CDF82CC0884624972194CDF834E0099102
:103C60001F991C9F01EB0B04E45D611E0E2914D803
:103C7000012101FA04F10D420FD12CAF47442697E0
:103C80000D430D9F2699099701F8084C219F249C0C
:103C9000F0460D97DDF82CE00B942099129F01EB74
:103CA0000B04E45D611E0E290ED8012101FA04F116
:103CB0000D4209D12CAF474407F8084C0D9CF04643
:103CC000DDF82CE00D4309949BF80070791E0E2955
:103CD00000F2ED83012404FA07F4254240F0E78363
:103CE0002CA901EB080404F8087CF046299F90FBFE
:103CF000F8FCB842CDF82CC040F3D68308F110058B
:103D00000995E9B208F1FF34002C0D9489F80110EF
:103D100040F336840B9C239D0B9904FB05F503FBB4
:103D200004F42195099D8FB20021112D249426972A
:103D300040F0C283239F8C46259727924F46994691
:103D40002CAC621812F8085C0CF1010E691EC9B2A5
:103D50000AEB81046268219D01EB41035219103185
:103D60006260249D5AF821400AEB830362194AF8E5
:103D70002120B3F87C4026995FFA8EFC0D19A3F838
:103D80007C500D9B0B9A6345C2EB00006146D7DC6B
:103D90004B46B946259F279A2397F3E30F98805EF9
:103DA000C0E60F9FB85E3BE7DDF88CB0DDF84080E1
:103DB0001199129F0F98159D08F1FF3C1E311E3F6F
:103DC0003838AC45CDF840C00BF1FF3B119112974C
:103DD0000F907FF44EAE0A9FDDF88880A8F812702D
:103DE000BAF87C30BF4A002B00F0DA825468106CBD
:103DF00092F83111E5011BB295FBF3F4C0014DB20D
:103E000090FBF3F30D2D5460136440F3E8829AF8AD
:103E1000300142B2002A03DDB24D431E85F8303135
:103E20009AF8331148B2172840F3D4829AF83251E5
:103E300069B2002903DDAB4B681E83F83201BAF882
:103E40008820A84D002A00F08183AC68686C95F842
:103E5000351113B2E20192FBF3F4C0014AB290FBB8
:103E6000F3F30D2AAC606B6440F3B0829AF83451DE
:103E700068B2002803DD9B4A6B1E82F834319AF841
:103E800037114DB2172D40F39C829AF836114AB281
:103E9000002A03DD93484D1E80F83651BAF894107D
:103EA000904B002900F04E839D6CDC6893F839211B
:103EB00009B2E401E80194FBF1F490FBF1F551B291
:103EC0000D29DC609D6440F38E829AF8383158B237
:103ED000002803DD83495D1E81F838519AF83B3193
:103EE0005AB2172A40F393829AF83A114BB2002B38
:103EF00003DD7C4A481E82F83A01BAF8A050794B9B
:103F0000002D00F01D831C69D86C93F83D2129B267
:103F1000E50195FBF1F4C00155B290FBF1F10D2DD7
:103F20001C61D96440F36F829AF83C3158B2002882
:103F300003DD6C4D591E85F83C119AF83F315AB299
:103F4000172A40F35B829AF83E516BB2002B03DDD7
:103F5000644A681E82F83E01BAF8AC10614D00292F
:103F600000F0F6822B6D6C6995F8412109B2E401ED
:103F7000D80194FBF1F490FBF1F351B20D296C617F
:103F80002B6540F34E829AF8405168B2002803DD59
:103F900054496B1E81F840319AF843516AB2172A8E
:103FA00040F33A829AF842114DB2002D03DD4D4A9A
:103FB000481E82F84201BAF8B8104A4B002900F0B6
:103FC000C9825D6D9C6993F8452109B2E401E8015D
:103FD00094FBF1F490FBF1F551B20D299C615D6504
:103FE00040F331829AF8443158B2002803DD3D494C
:103FF0005D1E81F844519AF847315AB2172A40F3AE
:104000001D829AF846114BB2002B03DD354A481E3B
:1040100082F84601BAF8C450324B002D00F09C8261
:10402000DC69986D93F8492129B2E50195FBF1F41B
:10403000C00155B290FBF1F10D2DDC61996540F3A3
:10404000F9819AF8483158B2002803DD254D591EF0
:1040500085F848119AF84B315AB2172A40F3E58196
:104060009AF84A516BB2002B03DD1E4A681E82F893
:104070004A01BAF8D0101B4D002900F06F82EB6D99
:104080002C6A95F84D2109B2E401D80194FBF1F4B2
:1040900090FBF1F351B20D292C62EB6502DC013289
:1040A00085F84D219AF84C5168B2002803DD0D497E
:1040B0006B1E81F84C319AF84F516AB2172A40F3BF
:1040C000C6819AF84E114DB2002D03DD054A481EF7
:1040D00082F84E01BAF8DC10024B002900F034825D
:1040E00002E000BF140500201D6E5C6A93F85121A8
:1040F00009B2E401E80194FBF1F490FBF1F551B24F
:104100000D295C621D6602DC013283F851219AF8A8
:10411000503158B2002803DDB5495D1E81F8505179
:104120009AF853315AB2172A40F396819AF85211ED
:104130004BB2002B03DDAE4A481E82F85201BAF89A
:10414000E850AB4B002D00F014829C6A586E93F837
:10415000552129B2E50195FBF1F4C00155B290FB60
:10416000F1F10D2D9C62596602DC013283F8552174
:104170009AF8543158B2002803DD9D4D591E85F838
:1041800054119AF857315AB2172A40F36A819AF8B3
:1041900056516BB2002B03DD954A681E82F856011A
:1041A000BAF8F410924D002900F0DA81AB6EEC6A97
:1041B00095F8592109B2E401D80194FBF1F490FB80
:1041C000F1F351B20D29EC62AB6602DC013285F8E5
:1041D00059219AF8585168B2002803DD84496B1EB2
:1041E00081F858319AF85B516AB2172A40F33E8140
:1041F0009AF85A114DB2002D03DD7D4A481E82F80F
:104200005A01BAF800117A4B002900F0AB81DD6E3B
:104210001C6B93F85D2109B2E401E80194FBF1F411
:1042200090FBF1F551B20D291C63DD6602DC013211
:1042300083F85D219AF85C3158B2002803DD6C499F
:104240005D1E81F85C519AF85F315AB2172A03DC7F
:10425000674D581C85F85F019AF85E114BB2002B30
:1042600003DD634A481E82F85E01BAF80C51604BC8
:10427000002D00F079815C6B186F93F8612129B2F1
:10428000E50195FBF1F4C00155B290FBF1F10D2D64
:104290005C63196702DC013283F861219AF86031AE
:1042A00058B2002803DD524D591E85F860119AF866
:1042B00063315AB2172A03DC4D49581C81F8630157
:1042C0009AF862516BB2002B03DD494A681E82F8EE
:1042D0006201BAF81811464D002900F055826B6F43
:1042E000AC6B95F8652109B2E401D80194FBF1F4B7
:1042F00090FBF1F351B20D29AC636B6702DC013224
:1043000085F865219AF8645168B2002803DD3849C0
:104310006B1E81F864319AF867516AB2172A03DC80
:10432000334B681C83F867019AF866114DB2002D73
:1043300003DD2F4A481E82F86601BAF824512C4B3F
:10434000002D00F01F82DC6B986F93F869112AB280
:10435000E50195FBF2F4C0014DB290FBF2F20D2D98
:10436000DC639A6740F387809AF8683158B2002876
:1043700003DD1F4A5D1E82F868519AF86B114BB23B
:10438000172B03DC1A4D481C85F86B019AF86A114B
:104390004AB2002A03DD16484B1E80F86A310F230B
:1043A000229DCAF80030B5F91410124B09B95A8A87
:1043B0009A8211480178002940F0D5812DB0BDE8DE
:1043C000F08F0B4B481C83F837015EE5013185F80F
:1043D00035114BE5064A4B1C82F8333126E5013195
:1043E00082F8311113E5013283F839216DE500BF00
:1043F000140500202C020020A00200205E49581C59
:1044000081F83F019FE5013283F83D218CE55A4D4B
:10441000581C85F83B0167E5574B681C83F843013E
:10442000C0E5013285F84121ADE55349581C81F8BA
:104430004B0115E6013283F8492102E64E4D581C26
:1044400085F84701DDE5013283F84521CAE54A4B8D
:10445000681C83F84F0134E6474D581C85F853011A
:1044600064E64549581C81F8570190E6424B681CA8
:1044700083F85B01BCE6013183F8691174E700251C
:1044800089F80150FFF7B2BB02254FF000084FF04A
:10449000010E03240B9521952494CDF834E0454674
:1044A000CDF82480FFF7DCBB112109912AE4099D96
:1044B000002D3FF49BAB19E44DF67074C0F200047C
:1044C00014F808708C46259708924F46C1469846C6
:1044D0002CAA531813F8081C219A4D1EE9B201EBBF
:1044E00041040AEB84030AEB810465681031AD18BE
:1044F0006560249A5AF821400CF1010EA5184AF87B
:104500002150B3F87C402699259D0A19B3F88210F2
:1045100027926C1828942899279DA3F88210A3F855
:104520007C500D9B5FFA8EFC0B9A6345C2EB00003A
:104530006146CDDC4346089AC846B946239F21E030
:1045400003232DE702232BE7082329E7012327E78D
:10455000042325E7052323E7062321E707231FE795
:104560000A231DE70B231BE70C2319E7034D2295B4
:1045700036E4092314E700BF140500202C020020B4
:10458000239F00212CAC611811F8085C6C1EE5B269
:104590000AEB850105F1100E05EB45044D680AEBA9
:1045A000840400FB07574F605AF82E10B4F87C7053
:1045B00000FB03150999C0194AF82E50A4F87C0095
:1045C000783411293FF412AB4DF67075C0F2000536
:1045D000678915F80800C11961810D9C002C7FF7CF
:1045E00005AB0127239D08EB070C21930021CDF893
:1045F0002CC00D953B464FFA83FEC6457BDA2CA8AE
:10460000411811F8084C00EB0E07651EE9B20120B5
:10461000884017F8087C09900B9D781E0EF1010C5C
:1046200042F24817C2F200076FEA0C046419C0B2E4
:1046300007EB4105099F04F0010488422395BFB2AE
:10464000099477D9012404FA00F042F24814C2F226
:10465000000434F81150284324F811000B9D0CF18C
:104660000100A842644646D0099DC5B12CAC04EBBC
:104670000C0E1EF8085C6C1EE4B28C4264D842F248
:104680004815C2F2000535F814C047EA0C0E25F8AB
:1046900014E0DDF82CE00446013070452BD0239D5A
:1046A00023932CAB1C1914F8083C5C1EE4B28C421A
:1046B00036D9012303FA04F4B5F800E04EEA040306
:1046C0002B802CAC231813F808CC01300CF1FF34EC
:1046D0000990E0B2884218D9012303FA00F0B5F836
:1046E00000C04CEA00042C80099CDDF82CE0601C22
:1046F0007045D6D1239B1946013343457FF47BAFE8
:104700000D9F219B2397FFF771BA42F24813C2F223
:10471000000333F8104047EA040E23F810E0E3E703
:1047200042F2481CC2F2000C3CF814303B432CF817
:104730001430C6E742F24814C2F2000434F81050B4
:104740003D4324F8105089E74FF0010505FA04F4C1
:1047500042F24815C2F2000535F811C04CEA0404D3
:1047600025F8114095E74622002304200F210292EC
:10477000032203928DE8030004930593034A03F098
:10478000E7F91BE60E230BE60D2309E6482100207E
:104790002DE9F04F82464FEA400B40F21454C2F22A
:1047A00000044FEA8A055844B5B004EB800067194D
:1047B0000AF110060A962B95B0F97C607D68DDF849
:1047C000289005FB06F5884600F1780154F8290089
:1047D00040F214594FEA480CC2F200090CEB0804ED
:1047E000CDF814C009EB880C0695DCF8045000FBEA
:1047F00006F0079540F2145509EB8404C2F2000557
:1048000008F1100955F82950DDF818C009900895ED
:10481000B4F97C00079DDDF8249005FB00C50695E2
:10482000089D361805FB009906980C9390FBF6FC42
:104830000FFA8CF599FBF6F630B27D600A9E40F2D5
:104840001457C2F2000747F82600914612680AF191
:104850004C0C47F82C200AF10100B4F87E6032902D
:10486000B1F90650329B32B27834D8B29542CDF8C5
:10487000C4C01C9004DA657A247ACE804D720C7222
:10488000059E40F21450C2F200000BEB0A0106EB49
:10489000080200EB810300EB8202B3F87C10B2F84F
:1048A0007C40B3F88250B2F8820008F10106641827
:1048B000401971B2A3F87C40A3F8820000230E29AE
:1048C0003096A2F87C304EDC3446DDF814C0594EE8
:1048D00001270CEB06031A880BEB060042FA01F2E3
:1048E000D20704EA070600F1E7830125621954B2F2
:1048F0000E2C38DC002E00F0EB831E886A1846FA76
:1049000002F6F40700F1CD83309E0135721954B2DE
:104910000E2CD8BFB44626DC1E886A1C6D1846FAD9
:1049200005F616F0010F02EB010408D007FA05F5B1
:1049300006882E4306801E8826EA05051D801D88F0
:1049400045FA04F5ED0708D507FA04F40588254370
:1049500005801D8825EA04041C80551C0CEB05020B
:1049600054B20E2CD8DDB8F1000F69DD012101FA37
:1049700008F601FA0AF72F48F443034633F8022BEE
:104980000BEB00053098324200EA0100BFB2A4B23E
:104990008C46059009D0BAF1000F40F3A4833A4346
:1049A00023F8022C224023F8022C30980222012105
:1049B000824245D0059848B119881F4B314240F0DA
:1049C0006683309811460132824239D0CDF8148086
:1049D000DDF8C08016E0384323F8020C204023F8AD
:1049E000020C33F8021B501C314207D0924518DDEF
:1049F000394323F8021C214023F8021C421C424583
:104A000001461BD033F8020B3042EAD08A45E2DC83
:104A1000E4DA0CFA01F128880143298033F8020C0A
:104A2000DCE7E8DA0CFA02F229880A432A8033F834
:104A3000021CE0E7482100204C210020DDF8148012
:104A400099F8000099F9013042B293421590C0F2F2
:104A5000F4829A4FDA4497F9016097F900100596AD
:104A600097F9020097F90340DDF814C05518069035
:104A700002EB0C0702EB000C101909956E1C7D1C53
:104A80000CF1010700F1010C0698641A2894441AED
:104A90000598C2EB021229940892441A289A0998A0
:104AA0002A94C0EBC004C2EBC2002A9A0594C2EB60
:104AB000C20206924DF67C72C0F2000292F9032007
:104AC000CCEB0C1C11924DF67C72C0F2000292F9F4
:104AD0000220C6EB061612924DF67C72C0F200025E
:104AE00092F90120CDF81CC013924DF67C72C0F2F1
:104AF000000292F90020DDF8A4C01492089A760012
:104B000052001892059A17969600CCEBCC04C5EB90
:104B1000051599F903C00B96079A6D005600C7EB6F
:104B20000717199540F21452069D7F00C2F2000249
:104B30001A978000A400AF00C1F1010102EB8A0ABC
:104B40001B962C902D942E972F91CDF858A0CDF830
:104B5000CC80CDF81C90079E96F802B04FFA8BF4EB
:104B60006445059400F31D822F9B0998DDF844905D
:104B7000DDF84880DDF84CA0149D04EB0A011A18FA
:104B800009EB040704EB08002B19DDF8B0900B9C2F
:104B9000DDF8B48004EB090A1B9D04EB0809DDF87D
:104BA0006880C2EB021608967E1900EB0805DDF856
:104BB0005C802E9A9844CDF83490CDF8188004EBA0
:104BC0000209DDF82080059A5744DDF834A002EB95
:104BD0004802089200EB0A08189A0B98DDF814A016
:104BE0001B1802EB0A00DDF8A0A0099A199C524498
:104BF0001F92DDF8A4A0099A0C1952441E92DDF808
:104C0000A8A0099A894452441D9241F6545A089A20
:104C1000C2F2000A5244089242F2A052C2F20002CA
:104C200002EB4707229740F63067C2F2000707EB16
:104C30004607239740F63067C2F2000707EB450AA4
:104C400040F6306702EB4808C2F20007CDF89080CA
:104C500007EB440802EB490902EB4303CDF894A0AB
:104C6000CDF89C80DDF818A0DDF8188040F63062A1
:104C700041F65457C2F20007C2F20002CDF89890F4
:104C800002EB4A0908EB070ACDF840A040F21452A3
:104C9000DDF8ACA0C2F200020021CDF88490F61934
:104CA00002EB0A09ED19E4192093C0190B460D9681
:104CB0000E950F94089ACDF818900EE078DF00005A
:104CC000DDF81CC055709CF903C003EB0B056CB2FA
:104CD00001320231A445C0F26081577801337E1E53
:104CE000F5B26CB2102CF0DDC71897F83C80C65CAA
:104CF000177848EA0609967849EA07073743FE0716
:104D0000E3D5112CDCD11C9D0D9C5570DDF814A051
:104D10005F1EDDF84480E65C574407EB0809002E6F
:104D200045D10C9D002D00F0A081239E7518B5F98A
:104D30000240002C3BDD1F9E169DDDF8188006FB0F
:104D400004FA783509FB04F9B5F804C0D8F8046012
:104D5000089540F214580A9DC2F2000858F82550F0
:104D60004FEACA1A0FFA8CF84FEAC91906FB08A6CF
:104D700005FB08956444A4B2DDF820800FFA84FC9A
:104D8000A8F8044096FBFCF695FBFCF5DDF834A092
:104D9000DDF81890DDF8288040F2145C1124C2F28E
:104DA000000C0AF80340C9F804604CF82850DDF8FC
:104DB00038A0DDF848901AF8036007EB0908002EC8
:104DC00045D10C9D002D00F05381259E7518B5F935
:104DD0000240002C3BDD1E9E169D08FB04F9DDF809
:104DE000188006FB04FA7835B5F804C0D8F80460DA
:104DF000089540F214580A9DC2F2000858F8255050
:104E00004FEACA1A0FFA8CF84FEAC91906FB08A62E
:104E100005FB08956444A4B2DDF820800FFA84FCF9
:104E2000A8F8044096FBFCF695FBFCF5DDF838A0ED
:104E3000DDF81890DDF8288040F2145C1124C2F2ED
:104E4000000C0AF80340C9F804604CF82850DDF85B
:104E50003CA0DDF84C901AF8036007EB0908002E1F
:104E600045D10C9D002D00F00681279E7518B5F9DF
:104E70000240002C3BDD1D9E169D08FB04F9DDF869
:104E8000188006FB04FA7835B5F804C0D8F8046039
:104E9000089540F214580A9DC2F2000858F82550AF
:104EA0004FEACA1A0FFA8CF84FEAC91906FB08A68E
:104EB00005FB08956444A4B2DDF820800FFA84FC59
:104EC000A8F8044096FBFCF695FBFCF5DDF83CA049
:104ED000DDF81890DDF8288040F2145C1124C2F24D
:104EE000000C0AF80340C9F804604CF82850DDF8BB
:104EF00040A01AF80360DDF850A00AEB0709002E65
:104F000040D10C9F002F00F0B980219C6618B6F9A3
:104F10000240002C40F3B780099DDDF8188005FBA6
:104F200004FA169F09FB04F9D8F804600A9D40F2C0
:104F30001458B7F87CC0C2F2000858F825504FEA60
:104F4000CA1A0FFA8CF84FEAC91906FB08A605FB26
:104F500008956444A4B2A7F87C400FFA84FC109F23
:104F6000DDF81880DDF8289040F2145A96FBFCF624
:104F700095FBFCF51124C2F2000AFC54C8F8046049
:104F80004AF82950079E03EB0B0596F903C06CB253
:104F900001320231A445BFF6A0AEDDF81C8098F9BD
:104FA00001301598189D471CFEB20B9F1E351C370B
:104FB00072B2179C099915961895199E1B9D0B970F
:104FC0001A9F1E34481C1E361E371E359A421794EF
:104FD000099019961A971B957FF7BDADDDF81C90C7
:104FE000DDF8CC8099F8004062B29A4225DC6B4D26
:104FF0001C9F501C99F8022051B2614517DCC0EB90
:1050000000134E1C06EB43014B1913F8016B0132E0
:10501000711E4EB2464508BF03F8017CD2B208BFEC
:1050200099F903C051B26145EFDD99F901300134BE
:10503000E4B262B201309A42DCDD594D594C3299EA
:10504000309A2B7821806280002B54D199F900008E
:10505000208099F90110618099F90220A28099F9C4
:105060000330E38035B0BDE8F08F229C645E60E6DB
:10507000249C645EADE6269C645EFAE6209D6C5E30
:10508000002C3FF749AF079F97F903C01DE6BAF11F
:10509000010F20DD394323F8021C214023F8021CB4
:1050A0008FE407FA02F6048846EA040202801C88AC
:1050B00024EA06061E8027E407FA01F5048845EA7B
:1050C000040202801C8824EA05051D80309C0CE443
:1050D000DDF8C0C020E4E0DA298842EA0100288037
:1050E00033F8021CD9E7BFF65DAC2A88114329804A
:1050F00033F8022C56E4072002210C2202F0A8FC0F
:1051000040F21457319EC2F2000707EB860393F971
:10511000010093F9021093F90320BA462B7817F98E
:1051200026706080204E2780A180E280002B8DD0E9
:1051300007200421002202F08BFC08F14C0006EB52
:10514000800292F9021016F920602B7892F9010082
:1051500092F9032026806080A180E280002B3FF43A
:1051600075AF07200421002202F072FC99F90000BB
:105170002978208099F90120628099F90230A38072
:1051800099F90300E08000293FF46CAF0720042167
:10519000002235B0BDE8F04F02F05ABC541D00208B
:1051A000A00200205C020020140500202DE9F04F31
:1051B000DFF838A591B04FF0000B07460BEB4B031F
:1051C0000AEB8300B0F97C207830002A00F042829C
:1051D00090F90810437A4C1E4D1CAC4207940D9573
:1051E00000F338825BB203F1FF3CC1EB011676009D
:1051F000CDF810C040F6306CC5EB0510C2F2000CC3
:10520000F5180CEB4505C1EBC102C4EBC40441F633
:105210005459029542F2A05503F1010803EB8404AE
:1052200003EB4000C3EBC37103EB8202C2F200093F
:10523000C2F200054E4405EB44040CEB400049006B
:105240004FEA480905EB42025B00039408900C9179
:10525000CDF8289009920B93DDF810C0C44500F3F7
:10526000E98106EB0C056C780C9BDDF80C90029A3A
:10527000611ECCEB0800D51809EB030C0E2905952F
:10528000CDF818C0C0F340095BD88B4559D0002F2A
:1052900000F0E9810BEB4B0342F2C8400AEB8302BA
:1052A000C2F20000B2F97E30029C089DB0F87E0088
:1052B000B4F9002003FB00F0B5F90040DDF828C088
:1052C000059D801135F90CC0CDF804C0934238DC3F
:1052D000A04236DADDF804C0844532DD594502DAF1
:1052E0005B468B4619460BF14C0301F14C025AF810
:1052F00022501AF823206CB250B284420E950AEB69
:10530000830301DD8DF838205D789DF939206CB27A
:10531000A24201DA8DF839509D789DF93A2068B2A1
:10532000824201DD8DF83A50DB789DF93B405DB259
:10533000AC4201DA8DF83B3058460EAA3B46FFF7E7
:1053400027FA049904258C1C444500F37381B9F1B4
:10535000000F6ED032195078411E0E2964D88B454B
:1053600062D0002F00F09C810BEB4B03DDF808C0EE
:10537000DDF8209042F2C8420AEB8300C2F200023C
:10538000B0F97E30B2F87E00BCF90420B9F904C04F
:1053900003FB00F0CDF804C0DDF82890DDF814C060
:1053A00080113CF909C0CDF800C093423CDCDDF827
:1053B0000490484538DADDF800C0844534DD5945AD
:1053C00002DA5B468B4619460BF14C0301F14C02A5
:1053D0005AF822901AF823204FFA89FE50B28645D7
:1053E000CDF838900AEB8303C8BF8DF838205A787F
:1053F0009DF939C050B2844501DA8DF839209A7888
:105400009DF93A9050B2814501DD8DF83A20DB7864
:105410009DF93B005AB2904201DA8DF83B30584674
:105420000EAA3B46FFF7B4F902340435444500F3B5
:1054300001813219517801390E2963D88B4561D029
:105440000BEB4B0342F2C8420AEB8300C2F20002AC
:10545000B0F97E30B2F87E00002F00F0D180DDF888
:1054600008C0DDF820903CF9052039F905C003FBA0
:1054700000F0CDF800C0DDF82890DDF814C08011F0
:105480003CF909C0CDF804C093423BDCDDF8009044
:10549000484537DA019B834234DD594502DA5A46E2
:1054A0008B4611460BF14C0301F14C005AF82020B9
:1054B0001AF823000AEB83030E924FFA82FC4FFA8C
:1054C00080FE5A78F4459DF93990C8BF8DF83800B0
:1054D00050B28145B8BF8DF839209A789DF93AC00D
:1054E00050B2DB7884459DF93B00C8BF8DF83A2067
:1054F0005AB29042B8BF8DF83B3058460EAA3B4690
:10550000FFF746F9023431194B780435591E0E293C
:105510008AD88B4588D0002F4CD00BEB4B03DDF89D
:1055200008C0DDF8209042F2C8420AEB8300C2F2C4
:105530000002B0F97E30B2F87E003CF9052039F95E
:1055400005C003FB00F0CDF804C0DDF82890DDF8BD
:1055500014C080113CF909C0CDF800C093423FF758
:1055600063AF019B9842BFF65FAF009A82427FF71C
:105570005BAF594502DA58468B4601460BF14C03A6
:1055800001F14C025AF822201AF823004FFA82F94E
:105590004FFA80FEF1450E920AEB83037FF727AFA7
:1055A0005A789DF939C08DF8380050B28445FFF61D
:1055B00024AF24E742F2C8490BEB4B00C2F20009CA
:1055C0000AEB8002DDF80CC0B9F87E00DDF824900B
:1055D000B2F97E300CEB050209EB050C3CF9029C9C
:1055E00003FB00F0CDF80490DDF82CC0DDF8189036
:1055F00032F9022C39F90C908011CDF80090ADE70A
:10560000DDF80CC0DDF824900CEB050209EB050C6D
:105610003CF9029C03FB00F0CDF80090DDF82CC0B3
:10562000DDF8189032F9022C39F90C908011CDF880
:10563000049029E7079902988B1C0793039C079D08
:10564000DDF83490783070343C364D450290039448
:105650007FF702AE0BF1010BBBF10E0F7FF7AEAD82
:1056600011B0BDE8F08F0BEB4B0442F2C8420AEBDD
:105670008400C2F20002B0F97E30039DB2F87E00D1
:10568000DDF82CC035F9022C03FB00F0069D099CC7
:1056900035F90CC034F9024C8011CDF804C015E680
:1056A0000BEB4B03DDF80C90DDF824C00AEB830212
:1056B00042F2C840B2F97E30C2F2000009EB0502A6
:1056C0000CEB050939F902CCB0F87E00CDF804C026
:1056D00003FB00F0DDF81890DDF82CC032F9022C45
:1056E00039F90C908011CDF800905EE61405002089
:1056F00010B40B7890F900405AB29442C8BF0370BE
:105700004B7890F901405AB29442B8BF43708B78FD
:1057100090F902405AB29442C8BF8370CB7890F996
:1057200003105AB29142B8BFC37010BC704700BF9B
:1057300001FB01F100FB0010704700BF42B103FB09
:1057400001F102FB0011D21801EB620090FBF2F1B3
:10575000084670472DE9F04F9D4A9E4C9E4B508A5B
:105760001189257889B018805980002D40F0138365
:105770009A4D9B4C95F89D30D4F800B042F6A8465F
:105780004FF0FF310F229748C2F2000602935B45AB
:10579000D4BF3360C6F800B008F0D1FB3C22924879
:1057A000FF2108F0CCFB029A002A6ED08F48D5F872
:1057B000805001688E4B4FF0000A039104950193CD
:1057C000D0462046DDF80490B9F92C60002E50D068
:1057D00041F62C5CC2F2000C5CF81A50039A049952
:1057E00005FA02F5BBF1000F05EB010E41DD41F6B4
:1057F000DC270023C2F200074FF0FF391A46574456
:1058000003EB430104EB8101B1F97C10013203F198
:10581000100600EB8305D2B281B150F826103E8B02
:105820006D68891B0EB206FB06F6B9886D1A29B29F
:1058300001FB01667645BCBF9946B64693451346C3
:10584000DEDCB9F1FF3F14D041F2F862C2F200028F
:1058500012F909506B1C00F0048243F28835C2F241
:10586000000555F82930734503D945F829E002F8B9
:105870000980019A08F1010802995FFA88F80C3250
:10588000884501920AF1020A9CD1BBF1000F40F356
:105890007E820023DFF850A11E4641F2F860C2F27A
:1058A0000000C75C01367DB26A1CF6B239D0FDB289
:1058B00042F6A84C03EB430205EB4501C2F2000C93
:1058C0000CEB810704EB82007C377C3007C804EBCB
:1058D000830E87E8070003F1100803F14C0C42F631
:1058E000A842DEF8049054F8287054F82C10C2F244
:1058F00000025AF8233042F6A84841F62C5C02EB2D
:10590000850EC2F2000805F1100005F14C02C2F24A
:10591000000CCEF8049048F8207048F822104CF89B
:105920002530B3453346B8DC029E4FF0000A06F13D
:10593000FF395FFA89F56F1C07EB47018800DFF834
:10594000B0E0D0460746CDF80C9007E008F101081A
:105950005FFA88F8C345C24640F3BE8041F2F86260
:10596000C2F2000212F90A300133EFD14FEA4A02C3
:1059700002EB0A0604EB8605B5F97C100029E5D098
:1059800002980028E2D01A4EA7F10C05B6F92C10A7
:105990000023C5F380001D4621B9164EB6F97C10D0
:1059A000002953D00C210123B942CFD0002838D090
:1059B00001EB0E06B6F92C001D4620B90D4EB6F9C6
:1059C0008800002842D00C310133B94229D1BDE70B
:1059D0002C020020A00200205C020020C82400202D
:1059E00014050020F816002088330020C400002091
:1059F000F0150020A82C0020BCF92C60013399463A
:105A0000DDB246B942F6A841C2F200010E18B6F95D
:105A10007C109A4ED1B100F10C01B94209F1010399
:105A200094D042F6A84601EB0E05C2F2000601F141
:105A30000C007118B5F92C600EEB000CDDB2002ED5
:105A4000DAD1B1F97C108D4E0029D5D1524405929E
:105A500004EB8A0C0AF14C020192DCF8042006EBFC
:105A6000830CDDF814900AF11000CDF800C041F26B
:105A7000F86C049254F82000C2F2000C03EB4301CE
:105A800004EB89020CF80A5003F11009049DDDF8BB
:105A900000A0069006EB81010198CDF814907C31AE
:105AA000CAF80450DDF81490069D54F820000191C6
:105AB00046F82950019D07907C3208F1010807CA79
:105AC0005FFA88F885E8070007994C33C34546F824
:105AD0002310C2463FF742AFDDF80C90029C684BA2
