:100000000060002085000000ED000000EF0000000F
:10001000F1000000F3000000F50000000000000007
:10002000000000000000000000000000F7000000D9
:10003000F700000000000000F9000000BD7400009F
:10004000A56C0000000000007D71000000000000B1
:10005000F1680000016900001169000021690000D9
:100060006D740000A174000000000000000000009A
:100070008D67000000000000316C0000416C000042
:10008000FFFF00001049114A114B9B1A40F30580F5
:10009000043BC858D0503FF7FBAF0E480E490F4AFB
:1000A000914200F0048041F8040BFFF7F9BF0948C2
:1000B0000B490C4A914200F0048041F8040BFFF711
:1000C000F9BF09480047000000F5000000000020CB
:1000D000980100200000000098010020684B0020DB
:1000E000005000200060002015010000FEE7FEE740
:1000F000FEE7FEE7FEE7FEE7FEE7FEE7FEE7FEE7D8
:10010000FEE7FEE7FEE7FEE7FEE7FEE7FEE7FEE7C7
:10011000FEE700BF2DE9F04F87B003F04BFD03F081
:1001200057FD0AF04DFB06F089FC0023C5F20203DF
:100130009A8802F4005081B20029F9D00024C5F257
:100140000204A58805F40056B7B2002FF9D10023A8
:10015000C5F21003C02240F2B51083F83C20C2F271
:1001600000000178A84F4FF0010AA84CA84D0029C3
:1001700000F0258140F29126C2F200063378002B70
:1001800000F00B8342F20053C2F2000393F8BA80EE
:1001900042F2005606F084FC002319464FF4E06258
:1001A0009A48C2F2000686F8BA300FF002F8012031
:1001B00003F064F94FF00E0C4FF0405ECCEBCC0036
:1001C0000CF1010101F5167382005EF8236002F163
:1001D000180054F820301FFA86F903EB090644F89A
:1001E00020601723581C00EB400601EBC6005EF8A8
:1001F000206002EB0309013B54F82900DBB203F154
:10020000010A1FFA86FB00EB0B060AEB4A0B44F8C7
:10021000296001EBCB095EF829A0D01854F82060C2
:10022000013B1FFA8AFBDBB206EB0B09FF2B44F8FC
:100230002090D7D10CF1FF3C5FFA8CFCBCF1FF0F92
:10024000BCD14FF00E0ACAEBCA014FEA810606F193
:10025000180054F82020172325F8102003F1FF3E42
:100260005FFA8EFB06EB030906EB0B020BF1FF3383
:1002700054F8290054F82210DBB2FF2B25F819009E
:1002800025F81210EAD10AF1FF3C5FFA8CFABAF1B4
:10029000FF0FD8D142F20056C2F2000603F05CFC18
:1002A00086F8BA8040F21D20C2F200000278BAB18E
:1002B00040F21C21C2F200010B78002B00F0788282
:1002C00040F29123C2F20003197800220270002943
:1002D00000F08D8241F2BC210D23C2F200010B70AF
:1002E00040F2BC02C2F20002107846B2731C00F069
:1002F000598240F2BC01C2F20001087841F2BC2EE2
:10030000C2F2000EFF228EF800000A7040F2CD16F5
:10031000C2F20006317843B240F29C20C2F20000E3
:100320000170102B30D8DFE813F011002F002F00E0
:100330002F002F002F002F002F002F002F002F0045
:100340002F00C201B60161011901F90003F0DCFAC6
:10035000002003F093F840F21C20C2F2000090F855
:1003600000A0BAF1000F00F0498241F2BC21C2F2B4
:1003700000010D2040F2943E0870C2F2000E9EF87B
:10038000001048B201F0CAFB3A681520904740F2CD
:10039000B713C2F200031E783EB140F2D810C2F289
:1003A0000000017809B101F027FA40F2B510C2F25D
:1003B000000001784FF0000A00297FF4DBAE72B62E
:1003C00003F006FC41F2BC220C20C2F200021070C5
:1003D00003F00CFC01F084FD01F04AFF03F054FC33
:1003E00062B640F2B51640F29D2E0121C2F200061F
:1003F000C2F2000E31708EF80010BAF1000F3FF417
:10040000C1AE06F04DFBBDE67C46002080370020E3
:100410005817002006F0AAF94FF00E0803F086FBEB
:100420004FF0405E08F1010000F516715EF82120E2
:10043000C0EB001B4FEA4B0C41F68C510CF1190339
:10044000160EC2F20001CE5417235E1C06EB4602C4
:10045000591E00EBC2035EF823A0CBB25A1C0CEB72
:10046000060941F68C5602EB4201C2F200064FEA41
:100470001A6B06F809B000EBC1015EF82110013BD0
:10048000DBB2090E6244FF2BB154DED108F1FF3814
:100490005FFA88F8B8F1FF0FC4D140F27450C2F28D
:1004A000000006786EB940F2B913C2F200031A7860
:1004B0003AB940F2DC1CC2F2000CDCF80010002952
:1004C0001EDD0B203E68B047012003F037FC3B687F
:1004D0000C20984744F27862C2F2000211680120B1
:1004E0008847012005F0DAF803F01EFC05F090FBC8
:1004F00006F026F810203E68B0473B681D2098475C
:1005000040F2CC10C2F200000278002A00F0B8835A
:1005100041F2BC211022C2F200010A7040F2B41272
:10052000C2F2000292F800A0BAF1000F3AD040F2F5
:10053000B51240F21C2E40F2CC1140F2B413002050
:10054000C2F20002C2F2000EC2F20001C2F20003C7
:1005500010708EF800000870187015E740F2B41B98
:100560000020C2F2000B02F07DFE9BF80090B9F172
:10057000000F00F0588140F2CC10C2F2000041F2AE
:10058000BC2600781023C2F20006337000283FF426
:10059000FBAE40F2B412C2F2000292F800A0BAF12F
:1005A000000FC4D1042007F0B3FE642006F008FB5E
:1005B00001F006FD0328BAD0642006F001FB01F02B
:1005C000FFFC0328B3D041F2BC2340F2CC1C40F224
:1005D000B9160F21C2F20003C2F2000CC2F20006EB
:1005E00019708CF800A086F800A0CDE642F2005603
:1005F000C2F2000608F0B0FF96F86D0000F1FF3B74
:1006000040B3012002F02EFE0BF0010809F02CF897
:100610000BF1FF39BBF1000F1CD0B8F1000F09D06E
:10062000012009F1FF3902F01DFE09F01DF8B9F1B2
:10063000FF3F0FD0012009F1FF3602F013FE09F051
:1006400013F8012002F00EFEA9F1020909F00CF8DE
:10065000002EEFD108F0BAFF40F29122C2F2000260
:1006600041F2BC2113780F20C2F200010870002B68
:100670003FF48AAEC04A40F2E86641F25771012366
:10068000C2F200060020C2F20001336010700B704D
:1006900007F00AFE78E601F09FFC41F2BC26FA2042
:1006A00006F08EFAC2F200060E2333706CE6B34BEE
:1006B00040F2B71240F2803142F200560020C2F2FE
:1006C0000001C2F2000203F1020C4FF0010AC2F273
:1006D000000682F800A0087408801880588098806E
:1006E000D8801881ACF8080008F036FF96F86D0045
:1006F00000F1FF3840B3504602F0C0FE08F0010B95
:1007000008F0B2FF08F1FF39B8F1000F1CD0BBF1BF
:10071000000F09D0504609F1FF3902F0AFFE08F092
:10072000A3FFB9F1FF3F0FD0012009F1FF3602F01E
:10073000A5FE08F099FF012002F0A0FEA9F1020930
:1007400008F092FF002EEFD108F040FF1C203A681D
:10075000904703F01BF900283FF427AE40F29121A7
:10076000C2F2000141F2BC260B780020C2F2000662
:100770003070002B3FF408AE7F4940F2E86E41F242
:1007800057730122C2F2000EC2F20003CEF800201D
:1007900008701A7007F088FDF6E5BAF1000F3FF413
:1007A00081ADEFE441F2BC23C2F200031878ADE55D
:1007B0000026C5F20206B08800F4005291B200296A
:1007C000F9D00026C5F20206B38803F4005081B2C6
:1007D0000029F9D141F2BC2640F21D280C22C2F2B8
:1007E0000006C2F20008327088F8001078E541F285
:1007F000BC260E20C2F20006307071E540F29B1656
:10080000C2F2000696F80080B8F1000F4ED086F8CC
:1008100000A040F29436C2F2000601F051FA86F8C8
:1008200000A05146ADE540F29C2605203A68C2F290
:100830000006904709F0F6FA3178002940F0DE8092
:1008400040F2E46CC2F2000C4FF0000803208CF878
:1008500000803B68984740F2E460C2F200000278F2
:10086000002A52D040F2BC1040F29C22C2F200009A
:10087000C2F20002066840F2502B1178C2F2000B5F
:10088000ABF80060002940F0D381022E22DC40F258
:10089000BC1240F2CC11701CC2F20002C2F2000184
:1008A0001060087800283FF46FAD72E605203A68C2
:1008B000904709F0B7FA002862D140F21D220121C9
:1008C000C2F2000240F2943B1170C2F2000B9BF89E
:1008D000001056E540F2BC1840F2C61340F2CC16A8
:1008E0000020C2F20008C2F20003C2F2000641F288
:1008F000BC21C8F80000188030780E22C2F2000136
:100900000A7000283FF440AD43E640F2BC1644F2C2
:100910007C6AC2F20006C2F2000ADAF80010326005
:100920000720884705F0D8FD44F27C63C2F200033B
:100930001A680920904703F0CDF805F00DFF40F24A
:10094000CB10C2F200000678002E7FF463AD09F0F0
:10095000F1FC00287FF45EAD40F2CC19C2F2000930
:1009600041F2BC2699F800000E23C2F20006337053
:1009700000283FF409AD0CE691020020820300201C
:1009800002F00AFD00F0A4FF40F29C21C2F2000137
:100990000B78002B40F0548140F2E460C2F200007A
:1009A0004FF0000B80F800B03E680320B04740F2E3
:1009B000E462C2F200021378002B4FD040F2BC195F
:1009C00040F29C20C2F20009C2F20000D9F8006097
:1009D00040F250220178C2F200021680B1BB022E12
:1009E0001FDC40F2BC1840F294300136C2F200081D
:1009F000C2F20000C8F800600178C2E404230F26A8
:100A00004FF0510C4FF0020E8DE84850CDF8109089
:100A1000CDF8149001201921C74A382307F082FB32
:100A20000EE703F047F841F2BC2140F2BC1340F25C
:100A3000943CC2F200010C200022C2F20003C2F278
:100A4000000C08701A609CF800109AE458460121C6
:100A5000102207F0E7FAB94B1E68C0E740F2BC115C
:100A600044F27C66C2F20001C2F2000632680B60FA
:100A70000720904705F030FD44F27C63C2F200038A
:100A800019680920884703F025F805F065FE40F253
:100A9000CB1CC2F2000C9CF8000020B909F04AFC03
:100AA000002800F0DE8005F061FE4FF00E0803F034
:100AB0003DF84FF0405E08F1010000F516765EF853
:100AC0002620C0EB00134FEA430B41F68C510BF18B
:100AD0001906120EC2F200018A5517235E1C06EB9E
:100AE0004602591E00EBC2035EF823A0CBB25A1C8B
:100AF0000BEB060941F68C5602EB4201C2F20006EE
:100B00004FEA1A6C06F809C000EBC1015EF821102B
:100B1000013BDBB2090E5A44FF2BB154DED108F180
:100B2000FF385FFA88F8B8F1FF0FC4D140F29C207B
:100B3000C2F2000006787EB1022200230F210820B5
:100B400000920191029003920493059304201921CD
:100B50007B4A1E2307F0E6FA0B203E68B0470120CF
:100B600003F0ECF844F27862C2F20002136801204C
:100B7000984739680C20884703F0D6F805F048F804
:100B800005F0DEFC10203E68B04713203A6890471D
:100B900000F03EFF002800F0C78042F20050C2F291
:100BA000000090F8AC300BB106F0F8FB65496648E0
:100BB0004FF4B6720EF0F4FA41F66051C2F2000141
:100BC0000E78012E40F2858040F21C2BC2F2000B01
:100BD0009BF8003013B9012007F09AFB40F2C911CD
:100BE000C2F2000141F6605641F2B82242F27A1E8A
:100BF0000B780020C2F20006C2F20002C2F2000E20
:100C0000307010608EF800000BB107F061FC42F20A
:100C10000050C2F2000090F8AC0007F059FC002828
:100C200078D140F29431C2F200010978FFF7A9BBF4
:100C300040460121102207F0F5F9404B1E6824E6DA
:100C400004200F21512202238DE80F00CDF81080DF
:100C5000CDF8148001201921374A382307F062FAB1
:100C60009AE602F027FF40F2943641F2BC220C23B0
:100C7000C2F20002C2F2000613703178FFF781BBA6
:100C800040F2B91EC2F2000E9EF8001029B940F2DF
:100C9000BC16C2F20006336823B34FF4AF7006F0FF
:100CA0008FFB40F29B26C2F20006337833B300205C
:100CB000C5F20200828802F002018EB2F6B940F25B
:100CC000CC1AC2F2000A9AF8000000283FF45CAB8C
:100CD0005FE442F27A12C2F2000210780A287FF62C
:100CE0007DAF71E744F20070C2F20000B0F801205D
:100CF000C2EBC20188B206F063FBD2E7002005F028
:100D00001DFF40F2CC13C2F20003187800283FF414
:100D10003BAB3EE40D4B4FF224261A78C0F200069E
:100D2000B05C400006F00CFB40F2943AC2F2000ABC
:100D30009AF80010FFF725BB58170020BC010020CF
:100D4000AB1D0020E02C0020CC310020002500202D
:100D50002DE9F84F2F4B187808B101F061FA2E49B0
:100D600001222C4E2D4D2E4C0A703078AB7883B971
:100D70000028FBD1A18801F400539AB2002AF4D1D3
:100D8000A18801F480539AB2002AEED001F0C8F88D
:100D9000EBE72049214C204D0A780020A0702870F4
:100DA0000C460AB101F076F925781E481E4C0F2337
:100DB0001421013BDBB2FF2B2AD019224FF0302A3D
:100DC00003F101094FF04058013AD2B2FF2AF0D0A6
:100DD0002DB101FB023730F81760B6B210E001FB0D
:100DE0000237DFF848C030F817B03AF817601CF83F
:100DF0000370B6B234F817701FFA8BFBF61B5E4413
:100E0000571C4FF0180C0CFB079748F82760DBE7DE
:100E1000BDE8F88F1C020020CF010020744600209E
:100E20000000025000200030803E002078F20000D8
:100E30002DE9F04FADF2FC5D002140F2EE2206A854
:100E40000EF0B7F900214FF4E06274480EF0B1F9EA
:100E500000214FF4E06272480EF0ABF900214FF42C
:100E6000607270480EF0A5F900214FF460726E4870
:100E70000EF09FF900214FF407726C480EF099F9BB
:100E80004FF6FF7140F2EE22C2A80EF092F918223E
:100E9000002168460EF08DF9654B0022D87B9A73CD
:100EA000012806D901210324D97383F8504002F0A8
:100EB00009FE604D5E4C2E7AE37A771E207BFA1A8B
:100EC000E57B111A69435C4F5C4E3D78317085B902
:100ED00001233B7008F040FB94F86D602C46A6425D
:100EE00005D0FFF735FF013408F0BEFBF7E708F047
:100EF0006DFB4FF00009524C228890B2814545DAD3
:100F0000FFF726FFC2AFDFF844814E4E07F52F777B
:100F1000B5AD0F244FF0180B04F1FF3A9CB35146C6
:100F2000022008F0E3FB424B192193F80EC000B2F7
:100F30004B1E09B30BFB01424FF0405151F82220E8
:100F400091B241FA0CF256F82310891846F8231092
:100F500035F81310121A914237F81310B8BF25F85C
:100F60001320914258F82310C8BF27F813208A187D
:100F700048F823201946DBE7A8F17008323F703E9D
:100F8000323D5446C8E709F10109B4E7C2A901F5A9
:100F90002F70DFF8B0E02C492C4F294DB5AC002262
:100FA00056000EEB060907EB060A294E192306EB3D
:100FB0000208284E06EB020C13F1FF331ED3B5F8DE
:100FC00000B059F823601FFA8BFBB6FBFBF628F83C
:100FD000136034F813B030F81360C6EB0B06FF2E25
:100FE000A8BFFF26B5F800B0CE545AF823601FFA08
:100FF0008BFBB6FBFBF62CF81360DDE7383A323C8E
:1010000032381E3912F5527FCAD102F0E1FD02F0EA
:1010100059FD7FB00DF5806DBDE8F08F8037002061
:1010200054070020802100204C2E00208C1D002021
:1010300000250020DC1A00209A0200207B210020DD
:10104000C0000020A03D0020301F0020740D0020B3
:10105000902400205C3100202DE9F84F5F4C0123E3
:10106000002503224FF0AA36B4206421E37384F8EC
:101070003030E37284F8283084F85020A27284F86B
:101080002E002183257384F8245084F8265026648A
:101090006664A664E66402F015FD29464FF4E0623A
:1010A0004F480EF086F84F4829464FF460720EF014
:1010B00080F8DFF83C814C4FB8F80030474E9AB2C8
:1010C00095422CDAFFF744FE0F2394F80EA0474A0E
:1010D00099464FF0405C4FF0180E5E1EEBB119219F
:1010E000481EB9B100F0010B09FB0B6B17F80BB0F0
:1010F000BBF1010F0CD10EFB01315CF821101FFA7E
:1011000081FB4BFA0AFB52F82010594442F8201098
:101110000146E5E7703A3346DFE70135CCE74FF0AB
:10112000553434647464B464F46402F0CBFCDFF8C6
:10113000C0802D4F0024B8F80050A8B284422CDAA9
:10114000FFF706FE0F2396F80EA0284A99464FF0A7
:10115000405C4FF0180E5D1EEBB11921481EB9B16D
:1011600000F0010B09FB0B5B17F80BB0BBF1000F94
:101170000CD10EFB01315CF821101FFA81FB4BFAF8
:101180000AFB52F82010594442F820100146E5E7C6
:10119000703A2B46DFE70134CDE7144D144C154867
:1011A000002305EB43071922C61812F1FF320AD3B8
:1011B000B4F800E057F822101FFA8EFCB1FBFCF1E6
:1011C00026F81210F1E7383B13F5527FE9D102F00F
:1011D000FFFCBDE8F84F02F075BC00BF0025002001
:1011E0008037002080210020C4F10000A03D0020B5
:1011F000C0000020902400202DE9F0475F4B002222
:10120000D87B9A73012806D901210324D97383F866
:10121000504002F057FC5A4800214FF4E0620DF0B4
:10122000C8FF574D02244FF04056671E17F0FF04C9
:1012300021D0FFF78DFD1C270F224FF0180E511EF5
:10124000CAB2FF2AF1D007FB02FC192102F1010802
:101250004B1ED9B2FF29F2D0481C0EFB008356F872
:1012600023000CEB01031FFA80F955F823004844D2
:1012700045F82300ECE7DFF80891DFF810C10F21F3
:101280004FF6FF722346254626464FF01C08481E9F
:10129000C1B2FF2918D008FB01FA1924671EFCB25D
:1012A000FF2CF4D00AEB040E59F82E0087B28342CB
:1012B000B8BF3B468242C8BF3A4608292CF81E7088
:1012C00094BF36182D18E9E72E4C9627A280E380AC
:1012D0009B1AE122B6FBF2F666812B4EB5FBF7F5C1
:1012E0002381A58101F0C6FE716C32208847002061
:1012F00094F9001001F04CFE94F90210012001F065
:1013000047FEB36C32209847FFF722FD00230F21E0
:101310004FF6FF701D461E464FF0405E18274A1ECE
:10132000D1B2FF2917D0192401F1010C013CE4B21C
:10133000FF2CF4D0621C07FB02C25EF8222092B29E
:101340009342B8BF93B29042C8BF90B2082994BFED
:10135000B618AD18EAE70B4A9621D0811382181A05
:10136000E123B6FBF3F6B5FBF1F550829682D58208
:1013700002F02EFCBDE8F04702F0A4BB00250020DF
:1013800080370020F0030020980300205817002029
:101390002DE9F04FADF66C2D002140F2EE2267A84A
:1013A0000DF007FF002140F2DC520DF28C400DF0F1
:1013B00000FF002140F2771209A80DF0FAFE00218B
:1013C0004FF407727F480DF0F4FE7F4C00214FF47C
:1013D00060727E480DF0EDFE01260323002584F89F
:1013E0005030E673A57302F06DFB7948067008F083
:1013F000B3F894F86D702C46A74205D0FFF7A8FC0F
:10140000013408F031F9F7E708F0E0F8FFF7A0FC45
:101410000DF5C17102910B460E224FF030241426B7
:10142000182706FB072534F81500D85517F1FF37A4
:10143000F7D2013A193B551CF2D1664E3120716C3E
:1014400088471323F45C03F110076D4613F1FF3353
:101450007C55F7D24FF000085F4EFFF779FC0298F9
:1014600035460E2200211427B446182307FB032615
:101470004FF0302434F8166010F803E0F4B2EC5466
:10148000A64518BF012113F1FF33EFD2013A1E3DEB
:101490001938541CE9D16446002959D0029EDFF85E
:1014A0002CC10DF58B600E224C4D64230DF28C4146
:1014B000571903FB021103970023F5182F7E5FB322
:1014C0004FF0140919F1FF3905D30DF1100A1AF87C
:1014D00009B0BB45F6D1039F4FF01C0E97F900A051
:1014E0000F6E0EFB0A9B00EB430ECDF804B00BF120
:1014F000FF3A97FBF8FBBEF930703CF81AA0C7EB37
:101500000B0EBEF1000FACBF0AEB0E070AF100078D
:10151000DDF804A02CF81A700F6E00EB430E97FB59
:10152000F8F7AEF83070E7183F7E013B2F760025C4
:101530000D66043913F1190FBFD1013A32381E3C40
:10154000193E511CB0D1B9F1130F31D04FF0000842
:101550000DF28C4608F1010806F5AF650E244FF038
:1015600040574FF0180A2146022008F0BFF81649EC
:10157000192291F80EC0002304F1010E00B2043BC1
:1015800013F1680F0FD00AFB02E657F82660E9183E
:101590001FFA86FB4BFA0CF6C0EB060B4E6E013AB7
:1015A0005E444E66EBE7013C643D631CDBD153E7D0
:1015B00002F00EFB0DF51B7D0DF5006DBDE8F04F43
:1015C00002F080BA8C1D0020002500204C2E002047
:1015D0009A02002098030020301F002078F20000BB
:1015E0002DE9F04FADF6542D002140F2EE2261A816
:1015F0000DF2744B0DF0DDFD0DF10C09002140F2F0
:10160000DC5258460DF0D5FD002140F277124846D5
:101610000DF0CFFD00214FF4077273480DF0C9FDA6
:10162000724C00214FF4607271480DF0C2FD01262A
:1016300003230025E67384F85030A57302F042FAC4
:101640006C48067007F088FF94F86D602C46A6423F
:1016500005D0FFF77DFB013408F006F8F7E707F047
:10166000B5FF1924FFF774FB0F234FF0302014212E
:101670005A1ED3B2FF2B0ED004FB03F51922013AF8
:10168000D2B2FF2AF4D001FB023630F81670AE1841
:1016900009F80670F3E74FF00008CDF80480FFF773
:1016A00057FB4FF030250F2200211424501EC2B2E8
:1016B000FF2A1CD019231E27574303FB02F6013BC8
:1016C000DBB2FF2BF2D004FB032035F81000DFF86B
:1016D00018C1C0B207EB030E0CF80E0006EB030EA8
:1016E00019F80EC08445EAD001210191E7E70029ED
:1016F00041D00F220121531EDAB2FF2A34D0192320
:101700001E261C2706FB02FC03FB02F407FB02FE5D
:10171000013BDBB2FF2BEED0334E0CEB0307F55D44
:10172000E61819F80600002D18BF002170B15BF80B
:1017300026700EEB030A97FBF8F061AF37F81660DE
:10174000801B2B4E20EAE07726F81A70E0185BF831
:10175000207009F8005097FBF8F6002561AF27F8D4
:1017600010604BF82050D3E7019810B191BB884628
:1017700001E0DDF8048008F101080F241926013C7E
:10178000E4B2FF2C8BD00220214607F0AFFF174FA9
:10179000192397F80EC006FB04F704F1010E00B2FE
:1017A0005D1EEBB2FF2BEAD018215A1C01FB02E2AE
:1017B0004FF0405555F82210FA181FFA81FA4AFAEC
:1017C0000CF55BF82210C0EB050A01EB0A054BF89B
:1017D0002250E5E702F0FCF90DF5157D0DF5006DE1
:1017E000BDE8F04F02F06EB98C1D002000250020EE
:1017F000802100209A0200202DE9F047DFF8C8A0E0
:10180000DFF8BC90DFF8C480294F2A4E2A4D2B4CBC
:1018100004E099F8000041B24B1C05D19AF8003061
:10182000002BF6D1BDE8F087254A137858B2062878
:1018300009D8DFE800F021042F32373A1200FFF711
:10184000F7FA0121217099F80020062A01D006F04C
:101850002BFDFF2389F80030E0E70121002288F802
:10186000001018208AF8002039703368984799F8DA
:101870000020062AEBD1ECE7124B01221A60172058
:101880002270316888470020287099F80020062AC5
:10189000DDD1DEE7FFF7E0FBD3E7FFF7A1FE002095
:1018A0002870CEE7FFF774FDF9E7FFF7A5FCC8E75E
:1018B000910200207C4600209A0200205717002049
:1018C00068210020E8060020D80100201D02002029
:1018D0002DE9F007494B93F80B90B9F1000F7AD03E
:1018E00009F1FF35E8B2B9F10D0F45B274DD4FF0E3
:1018F0000E0193F80A80B8F1000F67D008F1FF36A7
:10190000B8F1170FF6B262DD1827A9426CDB7FB27F
:1019100076B2C5EBC5027C1C394B06EB8200A41BDA
:1019200001F1010C03EB400264000021B74219DB16
:10193000B2F900000223A4F1020AA342CAF3400A4A
:1019400001440FD0BAF1000F03D0B2F90200042312
:1019500005E032F903A00233D05E51440233A342C2
:101960000144F6D1013538326545DFD189B2254BC6
:101970001A7C501CC0B2062823F8121031D81874F3
:10198000598998891A894018D98880189A884018E6
:10199000598880181A884118881844F6251182B28F
:1019A000C2F29241A1FB0201501A01EB500116480C
:1019B000164A0078C1F38F01D981A2F80090A2F8ED
:1019C0000280918090B9BDE8F0077047464608F163
:1019D0000107FFB299E74D4609F1010C4FFA8CF16E
:1019E00087E700211974CBE70021C0E70B20032112
:1019F000C822BDE8F00706F015BB00BF200200209A
:101A000060290020800300209C020020500200205A
:101A1000394B3A491A68F0B4002412F0FF000C70F8
:101A2000374B35D11C78002C61D0364B364C93F8AF
:101A3000C0602578AE4208D2344D93F8C1702E783C
:101A40000136F6B2B7422E704AD33148C28900201F
:101A50002070B3F8C600904234D22E4C294A92F836
:101A6000C80022780132D2B2904222702A4A1078FD
:101A700004D201300025C0B22570107093F8C9302F
:101A8000834228D20020107003220A70F0BC7047F5
:101A900018781F4A1B4BD28940B9B3F8BC40944216
:101AA000D7D21949194B08701870EFE7B3F8BE0088
:101AB000904212D91448047801340470B3F8C60077
:101AC0009042CAD3144A93F8C9301078114C0025BB
:101AD00083422570D6D30120D8E70B480470EDE788
:101AE0000C4B2A701A700C4B1A700222CDE7084872
:101AF000044BC289ADE700BFE02C00209403002016
:101B00009E010020002500209A010020990100205C
:101B100080030020980100209D01002002282DE96B
:101B2000F84F56D0032844D0012801D0BDE8F88FE3
:101B30005C4B1878002840F0B0805B4B02204FF4DB
:101B400020515A4C83F88A0083F89B004FF6EC70C2
:101B50004FF47A720125A3F87200A3F8AE104FF487
:101B60002570A3F8B0104FF4A5712570A3F8B2103A
:101B700041245A21A3F8B400A3F8B6203A20A3F8D0
:101B8000B8206422A3F88440A3F876201E24A3F88A
:101B90007810A3F87A00222230214FF42030A3F8E5
:101BA0008640A3F87C20A3F87E10C3F88000BDE82F
:101BB000F88F3F4B3F491A78002A5DD00A88501CA5
:101BC00082B2082A0A8060D03B4B01211970BDE81F
:101BD000F88F344D2E78002E5AD1384E324BB6F84D
:101BE0008490B6F8868096F88AC096F89B7096F82E
:101BF0009BA0B6F8AE50B6F8B040B6F8B200B6F852
:101C0000B410B6F8B6204FF0000BA3F8B620B6F823
:101C1000B820A3F88490A3F8B820B6F87620A3F8EB
:101C20008680A3F87620B6F8782083F88AC0A3F8D7
:101C30007820B6F87A2083F89B70A3F87A20B6F85B
:101C40007C20A3F8AE50A3F87C20B6F87E20D6F80E
:101C50008060A3F87E20154AC3F880604FFA8AF6A8
:101C600082F800B0A3F87260A3F8B040A3F8B20005
:101C7000A3F8B410BDE8F88F0888421E90B208801F
:101C80000028A1D1012119709EE7002119709BE75E
:101C90000020132106F0F4F89FE70020112106F040
:101CA000EFF84AE79C020020002500209E0100205A
:101CB0009C000020A00100209B010020943E0020F9
:101CC000F8B54F4B93F830502DB14E480278002AAA
:101CD00040F08980F8BD4C4C4C4922780E7A42F095
:101CE000010020702778FF2265F3410727702178D3
:101CF00065F382012170207840F008072770217871
:101D000065F3041121702078414965F34510207076
:101D10002778098865F3861727701A2066700A27C6
:101D2000B426A270E2706671A571E5716572A07249
:101D3000E57225736773A67B01EB410746F001004E
:101D4000A073A67B988E46F00206A673E67BC1EBD5
:101D5000C70146F0010601EB8101E6730918588EB0
:101D60008EB222740CF084FF23A3D3E900230DF07C
:101D70000FF90DF0F5F9C0F30722C3B230466274D3
:101D8000A3740CF075FF1CA3D3E900230DF000F938
:101D90000DF0E6F9C0F30721C0B2E1742075627D51
:101DA000152065F305026275A37DA26C65F301033E
:101DB000A375A17D65F30511A175E37D65F30103AD
:101DC000E375E17D65F30411E175E37D65F345138A
:101DD000E375217E192365F305012176EF216376F2
:101DE000A1769047F8BD002002219F22BDE8F8406F
:101DF00006F018B9AFF300803333333333B33640D2
:101E0000002500209C02002098030020DC1A0020FE
:101E1000A0010020AFF3008040F29833C2F200032B
:101E200000221A605A609A60DA601A615A619A61F7
:101E3000DA611A625A629A62DA621A635A639A63C0
:101E4000DA631A64704700BF821E062A10B50DD9E6
:101E50000A4931F810200A49012A09D0094B185CB7
:101E600004F0D4FF04460648C26C9047204610BDDB
:101E7000044C205C05F030F8F4E700BF340000208B
:101E8000980300200000002038B5831E062B04466E
:101E90000ED9104DE86C80470F49104B31F81420D3
:101EA000185D012A294610D0BDE8384005F05EB81B
:101EB0000A4A0949105C31F81410022C0CBF0322A5
:101EC0000222BDE8384005F0F7B8BDE8384005F01B
:101ED000B7B800BF980300203400002000000020A5
:101EE00040F2983341F68961C2F20003C0F200016A
:101EF000596441F6496041F619610022C0F20000C0
:101F0000C0F2000183F85020986483F85120D9640E
:101F100083F8522083F8532083F85420704700BF81
:101F200070B5254C00F001062378244A43F00100E7
:101F300020702178157841F0020323702078002D5D
:101F400014BF0325022540F0040121702378A26C00
:101F50006FF3C30323702178212041F01003237015
:101F6000217866F345112170237865F38713237078
:101F70009047012004F03CFE2078A26C40F0010163
:101F800021702378212043F002012170237843F04F
:101F90000401217023786FF3C303237021786FF35A
:101FA00004112170237866F345132370217865F3BB
:101FB00087112170904770BD980300201C020020FB
:101FC00010B540F29834C2F20004636C13209847B5
:101FD000E07800F0070010BD42F20053C2F20003A7
:101FE000012170B4D973997383F8291083F82410F0
:101FF00083F8261019714FF4E15623215E86A3F869
:10200000841040F6C41619219E86A3F886105A261D
:1020100006219E7283F8741003264FF6FF7183F831
:102020006A60A3F8C610322640F226210C241E83D3
:10203000A3F8761040F24E564FF4AF71002240F2F2
:1020400054459E8283F82C4083F82D40A3F87810E5
:10205000A6F5A0760B240A2183F851209E83DD8308
:102060001D8483F82A2083F8284083F8AC20A3F845
:102070007E1083F88A20A3F89020A3F8922083F89A
:102080009420A3F89620A3F8982083F89A2070BC97
:1020900001F018BDF8B55F4B5F4E1A7800F00107EC
:1020A000317867F300021A70187800297FD040F069
:1020B00002005A4D18701C7895F86B2062F30514D5
:1020C0001C701978042241F0400018705C78298A4D
:1020D00062F306045C70002976D048F63964C3F6D2
:1020E000E304A4FB0101C1F347009870DA78688A21
:1020F0006FF3C712DA70002864D048F63961C3F66E
:10210000E301A1FB0042C2F34604D878A98A64F334
:102110000600404AD87000294ED048F63964C3F60C
:10212000E304A4FB014011794008C0F3002464F3E8
:1021300000011171C0B2EA8A5871002A3AD048F6FB
:102140003961C3F6E301A1FB0214C4F346009A7996
:10215000012160F306029A71D879032461F3030028
:10216000D871DA79052060F30612DA711A7AD3F899
:1021700048C064F303021A72187A64F307101872E5
:102180005A7A062464F303025A725A7A0E2042F0F5
:1021900010025A725A7A1F4C42F020025A729A7AEE
:1021A00061F306129A72E04733787BB9F8BD61F3A8
:1021B00041007EE70120CAE71479012061F30004A1
:1021C0001471B8E70124A0E701208EE72078297870
:1021D00067F3000020702278102067F3410222701C
:1021E0002378A26C6FF38203237023786FF3C30309
:1021F000237023786FF30413237023786FF3451350
:10220000237023786FF3C713237061700421A170CA
:102210009047F8BD980300201C02002000250020F4
:10222000F8B50120FFF736FF40F298343220C2F2B1
:10223000000404F0DDFC182232232370A16C6270CC
:10224000122088470127002602258B202070A36CCE
:1022500067701020A670E57098470B212170A26C62
:1022600067701020A670E5709047F8BD0000000070
:102270002DE9F04FDFF860B38FB09BF80030D24CFF
:10228000002B00F0358601202070A56CA8479BF834
:102290000060002E40F05686676C3120B847CB496D
:1022A0000023E05C5D5C5A1C531C854240F01186A3
:1022B000A65C8F5CB74240F00C86142BF1D1DFF89E
:1022C0001CA39BF800309AF80F10DAF85450DAF893
:1022D00058E0DAF85C80DAF86060DAF86470002BB5
:1022E00000F0D285002318465A1CE0540233142B08
:1022F000A054F9D1A16C3120884723789AF8302076
:1023000043F00103237023789AF82B1043F0020363
:10231000237023789AF82A0062F3820323702378CB
:102320009AF8242061F30513237023789AF8251076
:1023300060F387132370637802F00F0242EA011200
:1023400062F304039AF8262063709AF82710A378A2
:1023500002F00F0242EA011262F30403A370E37871
:10236000012767F30403E37023799AF82D1067F3CC
:102370000403237163799AF82C2061F303036371DA
:1023800063799AF82E1062F3071363714FF6D273D4
:10239000CFF6FF73A2795B1A03F03F0363F30502E4
:1023A000A271E2799AF8280063F30502E2719AF8C3
:1023B0002910237A00F00F0242EA011262F30403AB
:1023C0002372637A9AF82F202F2062F3010363723D
:1023D000A37A9AF868204FF47A7562F30203A37225
:1023E000A36C98472378A26C6FF3000323702378C3
:1023F0000F206FF3041323706378754E67F30103A6
:1024000063708E23A370E378DFF8BC8143F003038D
:10241000E370E3786FF38203E370E37867F3051307
:10242000E370E37867F38713E370904723789AF8B3
:102430000F203B4323702378BAF8180043F01003B1
:102440002370637802EB420262F3060305FB00F09F
:1024500063700CF00DFC5AA3D3E900230CF098FD37
:102460000CF07EFEA378BAF81A70C0F3014262F352
:102470000103C0F30721C2B205FB07F0A370E170AE
:1024800022710CF0F5FB4EA3D3E900230CF080FD84
:102490000CF066FE63797788C0F3014262F30103B2
:1024A000C0F30721C2B205FB07F06371A171E271AD
:1024B0000CF0DEFB42A3D3E900230CF069FD0CF025
:1024C0004FFE237AB788C0F3034262F30303C0F3DD
:1024D0000721C2B205FB07F023726172A2720CF0F1
:1024E000C7FB37A3D3E900230CF052FD0CF038FEF4
:1024F000E37ABAF82270C0F3034262F30303C0F335
:102500000721C2B205FB07F0E372217362730CF07E
:10251000AFFB2BA3D3E900230CF03AFD0CF020FE17
:10252000A37BC0F3014262F30103C0F30722C0B2F0
:10253000A373E2732074637C6FF306036374F08803
:1025400005FB00F00CF094FB1DA3D3E900230CF075
:102550001FFD0CF005FEA37CC0F30342C0F307216E
:1025600062F30303C2B2A3741120E174A36C227559
:10257000984723789AF8501043F00203237022788A
:10258000144B61F30712227062781978122061F3FC
:10259000871262706278597861F30512627062780E
:1025A000997861F3830262706278D97861F30102ED
:1025B0006270A278197961F38712A27010E000BFEF
:1025C0000000000000C046409803002088F2000090
:1025D000DC1A00209CF200001C02002000250020D4
:1025E000A278597961F30512A270A278997961F302
:1025F0008302A270A278D97961F30102A270E27815
:10260000197A61F38712E270597AE27861F3051260
:10261000E270E278997A61F38302E270E278D97A23
:1026200061F30102E2702279197B61F38712227152
:102630002279597B61F30512227121799A7B0B462D
:1026400062F383032371A36C9847BAF8362023788A
:10265000C2F3012161F30103D2B223706270BAF8B0
:102660003820A378C2F3012161F30103D2B2A37031
:10267000E27023799AF83A2062F301032371BAF8E1
:102680003C206379C2F301209BF8001060F3010342
:10269000D2B26371A271002900F005840D250427D0
:1026A00088F807502772627A03206FF30102627282
:1026B000A36CA0721420984721789BF8005041F039
:1026C0000107CD4B2770002D00F0F783187840F0FC
:1026D0000201197025789AF830704FF01A0967F3E3
:1026E000820525702378D7F1010238BF002262F3FA
:1026F000C30323702078317A6FF304102070277899
:1027000000256FF3451727702278FF236FF3861299
:102710002270B42061700A21A370E3706071A5710A
:10272000E571657284F80A90E57225736173A77B81
:10273000BAF8320047F00102A273A17B192741F0D9
:102740000202A273E17BDFF8B08241F00102E27382
:1027500023740CF08DFAA6A3D3E900230CF018FC27
:102760000CF0FEFCC3B2C0F30721BAF83400617468
:10277000A3740CF07DFA9EA3D3E900230CF008FCAF
:102780000CF0EEFCC0F30722C0B2E2742075617D4C
:10279000152065F305016175A37D65F30103A3753C
:1027A000A27D65F30512A275E17D65F30101E17576
:1027B000E37D65F30413E375E27D65F34512E2758D
:1027C000217EEF2265F3050121766776A36CA27660
:1027D0009847DAF840C0DAF844E0CCF307205FFA13
:1027E0008CF301902370CCF30740019B049063703D
:1027F0004FEA1C6C049BCDF814C0A3705FFA8EF0F6
:10280000059B0690E370CEF30720069B079023718B
:10281000CEF30740079B0890DAF8481063714FEA3F
:102820001E6E089BCDF824E0A371C8B2099B0A90E4
:10283000E371C1F307200A9B0B9023720B9BC1F33A
:102840000740090EDAF84C200C900D9163720C9B36
:10285000C2F3072EA3720D9B5FFA82FCC2F30741FD
:10286000120EE372172084F80CC084F80DE0A173F7
:10287000E273A16C25746574A574E57488472078AB
:10288000A26C65F3000020702378182065F34103E3
:102890002370217865F382012170637865F3010369
:1028A0006370617865F305116170904720789AF83C
:1028B0000DC040F00102227021789AF80B3041F0EF
:1028C000020020702178367A41F0040222702178CB
:1028D0009AF80C006CF3C30121702178F61A65F3A5
:1028E000041121702178321A65F345112170207886
:1028F000561E40F0400121702078B2B240F08006B0
:1029000026706178C2F303200133DEB2D2B260F3E5
:1029100003016170A270E670217960F3030138460B
:10292000032721716271A16CA671E571257267722E
:10293000884720785B2240F00103B6217D27237071
:10294000A66C65704846A270E57021716771B0474A
:1029500020789BF8006040F0010323702278AE429B
:1029600014BF0327022742F0020121702078A66CD1
:1029700040F0040323702278212065F3C302227003
:10298000217841F010032370227865F345122270FC
:10299000217867F387112170B047012004F028F9EE
:1029A0002078A66C40F0010323702278212042F0A9
:1029B00002012170237843F004022270217865F32C
:1029C000C3012170237865F304132370227865F323
:1029D00045122270257867F387152570B047277850
:1029E0009BF8000047F0010608E000BFAFF300804D
:1029F0003333333333B33640980300202670002836
:102A000000F0548298F8003043F0020288F8002069
:102A100025789AF86970012667F382052570207879
:102A200000256FF3C300207061784FF00E0E66F33F
:102A3000010161704FF07409802705224FF02508CD
:102A40007821A570CDF80CE0E270A36C257102929C
:102A500065712A20A171E57184F808E084F8099075
:102A6000A57284F80B80277398472078DDF80CC096
:102A70007821062366F301002070A26C65702B207C
:102A8000A370E57025716171A57184F807C084F8A1
:102A90000890657284F80A80E77290472078DDF824
:102AA0000CC00722782366F3010020700392657042
:102AB0002C20A270E57025716371A57184F807C0A0
:102AC00084F80890657284F80A80E772A76CB847AA
:102AD0002178082366F3010121702078039965F3BA
:102AE00087003C2720706570A370E570D0232571A6
:102AF0006771A1710F27A021E371A26C27722D20AD
:102B0000617290472078029A9AF86A1062F3030083
:102B100020702778A36C47F01000207062782E2078
:102B2000324362706778DFF8E89247F00202627021
:102B30006278B54F65F383026270627861F30512C3
:102B40006270617865F3871161709847636C2846FD
:102B500098479BF80000002840F0BF813E7899F824
:102B6000535065F300063E703A7899F8521061F3BD
:102B700041023A703B7899F8006043F004053D70DB
:102B80003A7860F3C3023A70397860F3041139700F
:102B90003B7860F345133B703D7860F3C715042024
:102BA0003D707E70B870A76C1020B847032121706B
:102BB0006378A56C6FF30413637062781C206FF365
:102BC00001026270A84720780A266FF30000207087
:102BD00027784FF0E00C47F00201217023784FF086
:102BE000160B43F00405257062784FF0440966F334
:102BF00006024FF015086270A76C84F802B01D2021
:102C000084F80390029684F80480CDF80CC084F810
:102C100005C0B8472078DDF80CC06FF300002070C5
:102C20002678A36C46F00201217025781E2045F01D
:102C3000040222706178029D012765F3060161702C
:102C400084F802B084F8039084F8048084F805C006
:102C500098472078DDF80CC06FF3000020702278D0
:102C6000A36C42F00201217094F800E01F204EF0A6
:102C7000040222706178029AF02662F30601617004
:102C800084F802B084F8039084F8048084F805C0C6
:102C900098472078A26C38432070237824206FF363
:102CA00041032370217803236FF3041121707D21E8
:102CB0006370A170E37890256FF30303E3702771CD
:102CC00090472078A26C6FF3000020706178252077
:102CD0006FF300016170A770E3786FF30003E37096
:102CE00027716671A1796FF30001A171E7712572F7
:102CF00090472078A26C6FF3000020706378262044
:102D00006FF300036370A770E1786FF30001E17067
:102D100027716671A3796FF30003A371E7712572C0
:102D200090472078A26C6FF3000020706178272014
:102D30006FF300016170A770E3786FF30003E37035
:102D400027716671A1796FF30001A171E771257296
:102D500090472078A26C6FF30000207063782820E1
:102D60006FF300036370A770E1786FF30001E17007
:102D700027716671A3796FF30003A371E771257260
:102D800090479AF85100FFF785F994F82500020959
:102D9000072A00F0E080062A00F0DF80052A00F014
:102DA000DE80042A00F0DD80032A00F0DC80022AA5
:102DB00000F0DB80BA4200F0DA80002A00F0D9800F
:102DC0000F2A00F0D8800E2A00F0D7800D2A00F0DC
:102DD000D6800C2A00F0D5800B2A00F0D4800A2A75
:102DE00070D00E21092A6ED00F20084A94F82530A1
:102DF000105CA16C60F3071384F8253032208847FB
:102E00000FB0BDE8F08F00BF9803002004F200006F
:102E100000250020012869D0022800F098800328AE
:102E20000CBF32463A4603F00300C00022FA00F21B
:102E3000D2B2B2FBF1F001FB102212F0FF0F0CBF77
:102E40004FF0000C4FF0010C60445A1C5FFA80F9FF
:102E5000C2F3850004F80390E0B9284602F00303AA
:102E6000DB0020FA03F0C0B2B0FBF1F301FB13006A
:102E700010F0FF0F0CBF00200120C318D8B2531C64
:102E8000142BA0543FF436AAC3F385000028C1D107
:102E90002A46C8E7012827D002285AD003280CBFA9
:102EA00030463846DAE70725FFF7F9BB98F80010F7
:102EB00060F3410188F80010AAE51A7865F3410231
:102EC0001A7007E40D210D310F29B4BF08460F20F9
:102ED0008BE7DFF8B8A0FFF710BA0B223A707E70CC
:102EE0000226BD70FE705EE67046B7E772469AE74E
:102EF00001202070A16C88470022C5F20202908850
:102F000000F40055AEB2002EF9D00027C5F202073A
:102F1000BB8803F400518AB2002AF9D10020C5F21F
:102F20000200858805F40056B7B2002FF9D00021C1
:102F3000C5F202018B8803F4005290B20028F9D147
:102F4000FFF7A1B9052003F03BFEFFF7A5B9424604
:102F500069E7404682E70021B5E73946B3E7022139
:102F6000B1E70321AFE70421ADE70521ABE7062177
:102F7000A9E70721A7E70821A5E70921A3E70A2177
:102F8000A1E70B219FE70C219DE700BF0025002052
:102F90000028F0B4DFF8D8C0344C0CBF4A277C2797
:102FA000C9B214BF4B22002206E00132D2B263F351
:102FB0000715974225543BD35008255C12F00106B3
:102FC00014BF05F00F052D096BB2072B32D0062B6D
:102FD00032D0052B32D0042B32D0032B32D0022B2F
:102FE00032D0012B32D0002D32D00F2B32D00E2B0D
:102FF00032D00D2B32D00C2B32D00B2B32D00A2BEF
:1030000032D0092B14BF0F250E256B185DB20F2D82
:10301000A8BF0F2525EAE5731CF80330255C002EB8
:10302000C3D00132D2B263F3030597422554C3D211
:10303000F0BC70470025E8E70125E6E70225E4E754
:103040000325E2E70425E0E70525DEE70625DCE7C2
:103050000725DAE70825D8E70925D6E70A25D4E7C2
:103060000B25D2E70C25D0E70D25CEE798030020ED
:1030700004F200002DE9F007764E89B030687168DF
:10308000B268F3686C46744D0FC42F88B5F8388069
:1030900030697169B269F369B5F870C04744B5F831
:1030A000A8600FC40CEB0700B5F83042B5F8E0207B
:1030B000B5F8F8313618B5F81871B5F8689267495F
:1030C0009219B5F85001E318B5F8A042BA1891F872
:1030D0002C10B5F888714B44B5F8D862E318821803
:1030E0000DF1200AB5F8C001B5F810430AEB410113
:1030F000BA18F61831F8207C8018A4190121AB1CED
:103100001D881E8F2818B3F87020B3F8A850361801
:10311000B3F8E08090192A18B3F81861B3F8F851A1
:10312000B3F850014244B3F830C2B218B3F888A1E2
:10313000B3F8C0612C198018B3F86852B3F8028054
:103140006444B3F8A09250449A1CB3F8D8C22C1926
:1031500030185E8FB3F81053404409EB0403B2F803
:10316000704063443018B2F8F861B2F8A8C0EB18A8
:103170002018B2F83042B2F8E050F318B2F86862A2
:103180006044E318B2F818C1B2F8A0422818F31846
:10319000B2F85051B2F8D8626044E3180231B2F884
:1031A00088C1B2F810432818F318B2F8C05101F0E2
:1031B000FF016044E418931C19292844A0D14BF264
:1031C000C532C9F2A21248F2B513C1F64E3382FBE2
:1031D000005183FB04C50A18E417C017C0EBE211C5
:1031E000C4EB251283FB02C483FB0105D017C9176A
:1031F000A7F5A653C1EB2512C0EB2415A7EB42118E
:10320000DC01A7EB451794FBF1F094FBF7F3C21038
:10321000DD1042F21074103D103A04FB05F304FB7C
:1032200002F245F2F561CDF6B87181FB020481FB33
:103230000350A418C018D217DB170949C2EB243277
:10324000C3EB203052B243B20A804B8009B0BDE8D4
:10325000F0077047E4F10000581700200025002017
:10326000F00300202DE9F74F00214FF460728046F3
:103270003F480BF09EFF00214FF460723D480BF079
:1032800098FFFEF7CDFF4FF4D27004F099F8DFF805
:10329000F0A0DFF8FC90384F384E9AF80250384CC6
:1032A000DDB999F8003063B1FEF78AFE032804D136
:1032B000344B0120A570187058E04FF4D27004F020
:1032C0007FF83D782DB1B48804F0020291B2002954
:1032D000E3D0002003F032FCDFE70020FEF7DAFE47
:1032E00004F09CF80022A2700F24013CE4B2FF2CF1
:1032F0003CD0254890F8BA3023B10020214606F092
:10330000F5F982B21C276743DFF888A019234FF034
:10331000140B661C4FF040550192591ECBB2FF2B87
:1033200022D00BFB0340194907EB030C31F81020A6
:103330000F48019992B220F81C20501A0D4980B212
:1033400003F1010E4FF0180921F81C0009FB0E6C67
:10335000B8F1000F02D045F82C2001E045F82C0010
:10336000F8182AF81020D8E7019ABEE7BDE8FE8FCA
:10337000C0120020003400209B02002000000250F8
:1033800074460020B40100200025002000200030F9
:10339000BD02002058170020F8B5314B314D324C9A
:1033A0001878A9782278002837D053B22F4F0026FA
:1033B0003E6077B29F4243D02D4A1178002947D111
:1033C0002C4B2670002018702B4B012F1A7808BF49
:1033D0006C7842F0010018BF2C7818701A78996C3C
:1033E00042F002021A701A78102042F004021A7099
:1033F0001A786FF3C3021A701A786FF304121A70F6
:103400001A786FF345121A701A786FF3C7121A7090
:1034100004225C709A708847F8BD53B2581CC5D01E
:103420001248C1EB011106688900B1420EDD013678
:10343000012B066004D0B14202DC01263746BBE70F
:103440000C4B18780028E7D057B2BBE70126B0E74D
:1034500006F10E030020D9B204F012FDB0E700BF60
:103460007405002000250020BD000020A8010020D8
:103470009C02002099020020980300202DE9F04FC3
:10348000DFF86892012299F90030DFF86482DFF8F2
:1034900064A283B093428AF80020009098F800104C
:1034A00008BF98F8012098F80300019108BF019225
:1034B000002800F00781DFF840B2864C0023CBF8EB
:1034C00000302370844D854E0AE0DBF8001048F28E
:1034D0008043481CC0F21E039842CBF8000028D855
:1034E000AA7862BB217851BB0022C5F20202918802
:1034F00001F4005080B220B9938803F4805291B255
:10350000A1B930780028E0D0FEF75AFD002861D03C
:1035100098F80330002BD8D1019A4FF22421C0F241
:103520000001885C400803F04BFFCEE7FEF7F8FC93
:10353000E7E7012004F0ECFEAA78002AD2D098F840
:103540000300002800F0BB8022780023AB708AF8CB
:103550000030002A3BD1DFF8A4C1614E4FF00E08C5
:103560004FF04051009FC8EBC80908F101024FEA33
:103570008909002F46D109F118073CF8175002F5C8
:10358000167441F824501723581EC0B25D1C441C09
:1035900009EB030A09EB000301383CF81A7005EB4C
:1035A000450B04EB44043CF81350C3B202EBCB0BC5
:1035B00002EBC404FF2B41F82B7041F82450E3D1F7
:1035C00008F1FF385FFA88F8B8F1FF0FCAD103B0ED
:1035D000BDE8F08FFF2389F80030FFF7DDFE40F2F1
:1035E0009B21C2F200010A78CAB33E4B40F29831E7
:1035F0000022C2F2000181F850200120FF22207039
:103600001A7062E709F1180436F8145002F51670C2
:1036100041F8205017235F1EF8B25D1C441C09EBD3
:10362000030A09EB0003013836F81A7005EB450B65
:1036300004EB440436F81350C3B202EBCB0B02EB9D
:10364000C404FF2B41F82B7041F82450E3D108F15A
:10365000FF385FFA88F8B8F1FF0F83D1B7E740F27F
:10366000B400C2F2000001781E4B01291BD040F2C9
:10367000B401C2F200010B78012B7FF426AF44F2B3
:103680000077C2F200073F78002F7FF41EAF384664
:10369000FF220A7003F052FA40F29830C2F20000A2
:1036A00080F8507011E744F20072C2F20002107804
:1036B00001289BD0102899D01128D8D196E703F083
:1036C000ADFE41E7084C019D665D700803F078FE91
:1036D000F1E600BF1C02002074460020BD0200205D
:1036E000C0120020B400002024F20000BD00002021
:1036F00000250020CF0100205C290020003400209C
:103700002DE9F04FDFF8F481754F98F90030012270
:10371000DFF8EC91F878934297F800A083B089F82D
:10372000002008BF97F801A0002800F0D280DFF841
:10373000D4B16C4C0025CBF8005025706A4E6B4D0F
:103740000AE0DBF8001048F28043481CC0F21E0378
:103750009842CBF8000027D8AB785BBB22784ABBF5
:103760000021C5F20201888800F4005398B220B904
:103770008A8802F480518BB29BB930780028E0D05F
:10378000FEF71EFC002853D0FA78002AD9D14FF258
:103790002421C0F2000111F80A30580803F010FE8D
:1037A000CFE7FEF7BDFBE8E7012004F0B1FDAB7801
:1037B000002BD3D0F878002800F0888021780023EF
:1037C000AB7089F8003081BB494E0E224FF0405556
:1037D000C2EBC207B80000F11804511C36F814708F
:1037E00001F5167345F8237017235C1EE4B203F14C
:1037F000010CC31836F81390671C631E00EB040815
:1038000036F818800CEB4C0C07EB4707DBB201EBEA
:10381000CC0C01EBC707FF2B45F82C9045F827800F
:10382000E3D1013AD2B2FF2AD2D103B0BDE8F08F82
:10383000FF2088F80000FFF7AFFD40F29B22C2F2A4
:103840000002117861B12B4B40F298310022C2F294
:10385000000181F850200120FF2220701A7070E7CB
:1038600040F2B403C2F200031878224B012821D0A1
:1038700040F2B400C2F200000378012B7FF461AF84
:1038800044F20072C2F200021378002B7FF459AFA9
:1038900040F2B4011846FF22C2F200010A700193FF
:1038A00003F04CF9019840F29833C2F2000383F818
:1038B000500046E744F20072C2F20002117801297A
:1038C000C2D01029C0D01129D2D1BDE703F0A6FD86
:1038D00074E7094911F80A40600803F071FD26E712
:1038E000002500201C020020BD020020744600209C
:1038F00000340020B400002024F20000BD000020AD
:10390000CF0100205C2900202DE9F0471B4A82B03E
:1039100013681B4E13B93068010122D5194DDFF829
:1039200068800121AA4288F8001011D2134C05F1D9
:10393000140A002701E098F80010C4EB0A09B9F155
:10394000140FA8BF4FF0140971B94C44AC42F2D324
:1039500031680B4B0A0100D4FEE71A6822F00060C0
:10396000186002B0BDE8F08722460097019700205A
:103970005FFA89F1022304F0CBFAE6E70050002059
:10398000B8000020EC5F00209C0200202DE9F04FE1
:103990003F4E404D89B000203378002B6FD02C78FB
:1039A00064B921464FF460723B480BF002FC21469B
:1039B0004FF4876239480BF0FCFB5CE0FFF7A0FE98
:1039C0003748384990F80EA037480F224FF0405939
:1039D0004FF018084FF0140C571E32B319240792F9
:1039E000631EF4B1079A08FB042459F824B00CFBB9
:1039F00003741FFA8BFE4EFA0AFB2C4A52F824403D
:103A0000ABEB144231F913B0934502DA21F81320DD
:103A100005E030F913B09345C8BF20F813201C46C9
:103A2000DEE738383C393A46D6E721490A7872B1A0
:103A300005200F21522202238DE80F00002304935A
:103A4000059303201921154A3C2304F06BFB184809
:103A5000017881B1002205200F234FF09A0C4FF01E
:103A6000020E8DE8095004920592032019210A4A9A
:103A7000382304F057FB3078287001208CE7044984
:103A8000044B0A7880F001001A7009B0BDE8F08F8D
:103A9000D00100201E0200204C2E0020800E0020AD
:103AA00000250020C81100205C31002000400030BB
:103AB0009C02002008B502F0D7FB0020BDE80840BA
:103AC00004F006BD08B500F091F8BDE80840FEF727
:103AD000CFBB00BF4FF040531149D3F8382910B481
:103AE000D3F89809D3F83C49D3F89C290968C2F364
:103AF00007428A4211DDC0F3074090420DDBC4F358
:103B00000744944209DBD3F89C490648A1B201243A
:103B1000047005480280C3F89C1910BC704700BFB0
:103B20006C210020A2010020A4010020084B1A787B
:103B30006AB14FF040520748D2F89C19B0F9000022
:103B400089B241EA0040C2F89C0900221A7070470D
:103B5000A2010020A401002038B5124D124CFFF73D
:103B600089FA6B6C32209847002094F90010FFF717
:103B70000FFA012094F90210FFF70AFAA96C32201B
:103B800088470A4A0A4B2088618812781880598031
:103B900002B938BD00200221FE22BDE8384004F001
:103BA00041BA00BF98030020F00300209C020020CF
:103BB0005002002043F694604FF22C4108B5C0F249
:103BC0000001D422C2F200000BF0EAFA08BD00BFE7
:103BD00042F2005043F6946108B5C2F20001D422CB
:103BE000C2F200000BF0DCFA08BD00BFF8B542F2EB
:103BF0000053C2F20003D98BDD7B9C8B91FBF5F067
:103C0000621A86189F7AB1B2B3F812E001FB07F787
:103C10001E8AB3F816C09A8A7644B3F820E006EB01
:103C20004C0641F6DC2302EB420C44F27C62C2F209
:103C3000000366449EFBF5F597FBF4F4C2F2000224
:103C4000988059801E80DD801C7211680020884792
:103C5000F8BD00BF43785AB20D2A01DC591C4170EF
:103C600003785AB2002A01DD591E0170C3785AB296
:103C7000172A01DC591CC17083785AB2002A01DD71
:103C8000591E8170704700BF2248F0B4B0F9A010EF
:103C900048F68904B0F99E20C8F6880448F21F53FC
:103CA00084FB0156C5F2EB1383FB02577418D5173A
:103CB000CE17C5EB2717C6EB2414174E174B3DB292
:103CC0000027376090F8AD00192624B21E600F2639
:103CD0005E609D60DC60C0B91148124C02602160DA
:103CE00048F21F5402EB4202C5F2EB1484FB0210AF
:103CF000D117C1EB20144FF458624FF0405000210F
:103D00005C611C61F0BC0BF054BA054801600549C8
:103D10000A60E5E700250020E02C0020E81A0020DA
:103D2000D81A00205007002042F6E040C2F20000FE
:103D300000214FF4B6720BF03CBA00BF2DE9F04FF2
:103D4000DFF8C0A2ADB000214FF460720E90A6481B
:103D50000BF02FFA00214FF4B67250460BF029FAFF
:103D6000A2497F22FF238AF86A218AF868218AF80B
:103D70006B318AF869318AF866218AF864218AF8F9
:103D800067318AF865318AF862218AF860218AF8F9
:103D900063318AF861318AF85E218AF85C218AF8F9
:103DA0005F318AF85D318AF85A218AF858218AF8F9
:103DB0005B318AF859318AF856218AF854218AF8F9
:103DC00057318AF855318AF852218AF850218AF8F9
:103DD00053318AF851318AF84E218AF84C218AF8F9
:103DE0004F318AF84D318AF84A218AF848214878BB
:103DF0008AF84B3144B20D2C8AF849318AF84621B1
:103E00008AF844218AF847318AF845318AF84221F4
:103E10008AF840218AF843318AF841318AF83E21F4
:103E20008AF83C218AF83F318AF83D318AF83A21F4
:103E30008AF838218AF83B318AF839318AF83621F4
:103E40008AF834218AF837318AF835318AF83221F4
:103E50008AF830218AF833318AF8313103DC441C86
:103E6000E5B24D706CB20A784FFA82FEBEF1000FD7
:103E700007DD531E5D485FFA83FC80F800C04FFAEF
:103E80008CFE91F803804FFA88F5172D06DC08F1B7
:103E90000108564A5FFA88F882F8038089784BB2A5
:103EA000002B03DD01395148C9B281707445A34626
:103EB000C0F2D4854E4E4F4A96F9009096F9010013
:103EC00096F9027096F903400BEB09064A4B0BEB8F
:103ED00000050136241A381A92F9037010962293BD
:103EE000099792F90030109F4FFA88FC92F90280EE
:103EF00092F90120CDF84CC00C92A7EB0712C0EB51
:103F000000173E48CDF82C800068DDF84C802990E1
:103F100022980135408ACBEBCB060A90384849B24B
:103F2000C5EB051508EB860614916D0000EB460104
:103F30007F0012950F911797099D0B990C9FC4EB69
:103F40000414520064001192169403EB0802E81A5C
:103F5000CC1ACE44FB1ACDF854E0189219901A945A
:103F60001B93139ADDF850C06245C0F297810BF1A4
:103F7000010410981899C4EB041541F68C5740F6CB
:103F8000806E02EB4503C0EB00164A1CC2F200072C
:103F9000C2F2000EDC1902EB46050EEB4306149B41
:103FA0001299169A581E05EB070804F101098F189B
:103FB000129D179C19990C9011982B191D97DDF8DB
:103FC00044C047181A9D11981B9C0CEB050E011953
:103FD0001C93CDF88CB0139B00221E97CDF87CE08B
:103FE0002091C34683E000BF80210020B833002029
:103FF0001CF2000020F20000200200206C210020B2
:10400000D8250020780500200E9D002D00F03E816F
:10401000B6F90200E1B20AEB810801F1100C5AF87E
:104020002C50D8F80470239C00FB047700FB035449
:104030004D004AF82C406C180B950AEB8405C8F823
:104040000470B5F87C7001F14C04C719DDF82880C4
:104050001AF924E00A97B5F88270CDF834E007F138
:104060000C0C08F1010E1FFA8EF8A5F882C0DDF8DD
:1040700034E0DDF88CC00A9FE645A5F87C70CDF8E9
:10408000288005DD40F27855C2F2000505F824C00D
:104090000AEB840595F901E0DDF88C80C645BCBFCC
:1040A00047466F700AEB840797F902C00AEB840455
:1040B000DDF82CE094F903509C457144C8BFBB70F7
:1040C0009D420AEB8107B8BFE370B7F97E407837AD
:1040D000A04203DDF88023987B7238720C9C013B70
:1040E000023A023EA3420BF1FF3B00F0D58019F8E3
:1040F0000179A7F110056F2D40F239847C1EE0B2E2
:104100000E2881D90E99002900F0C380B6F902006B
:104110000028E3DD1E9DDDF8748005EB0B0414F828
:104120000870791E0E2900F2278401214FF0030C3C
:104130004FF0020E01FA07F58DF8A870032404274A
:10414000CDF82CC0884624972194CDF834E009910D
:104150001F991C9F01EB0B04E45D611E0E2914D80E
:10416000012101FA04F10D420FD12CAF47442697EB
:104170000D430D9F2699099701F8084C219F249C17
:10418000F0460D97DDF82CE00B942099129F01EB7F
:104190000B04E45D611E0E290ED8012101FA04F121
:1041A0000D4209D12CAF474407F8084C0D9CF0464E
:1041B000DDF82CE00D4309949BF80070791E0E2960
:1041C00000F2ED83012404FA07F4254240F0E7836E
:1041D0002CA901EB080404F8087CF046299F90FB09
:1041E000F8FCB842CDF82CC040F3D68308F1100596
:1041F0000995E9B208F1FF34002C0D9489F80110FB
:1042000040F336840B9C239D0B9904FB05F503FBBF
:1042100004F42195099D8FB20021112D2494269735
:1042200040F0C283239F8C46259727924F4699469C
:104230002CAC621812F8085C0CF1010E691EC9B2B0
:104240000AEB81046268219D01EB41035219103190
:104250006260249D5AF821400AEB830362194AF8F0
:104260002120B3F87C4026995FFA8EFC0D19A3F843
:104270007C500D9B0B9A6345C2EB00006146D7DC76
:104280004B46B946259F279A2397F3E30F98805E04
:10429000C0E60F9FB85E3BE7DDF88CB0DDF84080EC
:1042A0001199129F0F98159D08F1FF3C1E311E3F7A
:1042B0003838AC45CDF840C00BF1FF3B1191129757
:1042C0000F907FF44EAE0A9FDDF88880A8F8127038
:1042D000BAF87C30BF4A002B00F0DA825468106CC8
:1042E00092F83111E5011BB295FBF3F4C0014DB218
:1042F00090FBF3F30D2D5460136440F3E8829AF8B9
:10430000300142B2002A03DDB24D431E85F8303140
:104310009AF8331148B2172840F3D4829AF83251F0
:1043200069B2002903DDAB4B681E83F83201BAF88D
:104330008820A84D002A00F08183AC68686C95F84D
:10434000351113B2E20192FBF3F4C0014AB290FBC3
:10435000F3F30D2AAC606B6440F3B0829AF83451E9
:1043600068B2002803DD9B4A6B1E82F834319AF84C
:1043700037114DB2172D40F39C829AF836114AB28C
:10438000002A03DD93484D1E80F83651BAF8941088
:10439000904B002900F04E839D6CDC6893F8392126
:1043A00009B2E401E80194FBF1F490FBF1F551B29C
:1043B0000D29DC609D6440F38E829AF8383158B242
:1043C000002803DD83495D1E81F838519AF83B319E
:1043D0005AB2172A40F393829AF83A114BB2002B43
:1043E00003DD7C4A481E82F83A01BAF8A050794BA6
:1043F000002D00F01D831C69D86C93F83D2129B273
:10440000E50195FBF1F4C00155B290FBF1F10D2DE2
:104410001C61D96440F36F829AF83C3158B200288D
:1044200003DD6C4D591E85F83C119AF83F315AB2A4
:10443000172A40F35B829AF83E516BB2002B03DDE2
:10444000644A681E82F83E01BAF8AC10614D00293A
:1044500000F0F6822B6D6C6995F8412109B2E401F8
:10446000D80194FBF1F490FBF1F351B20D296C618A
:104470002B6540F34E829AF8405168B2002803DD64
:1044800054496B1E81F840319AF843516AB2172A99
:1044900040F33A829AF842114DB2002D03DD4D4AA5
:1044A000481E82F84201BAF8B8104A4B002900F0C1
:1044B000C9825D6D9C6993F8452109B2E401E80168
:1044C00094FBF1F490FBF1F551B20D299C615D650F
:1044D00040F331829AF8443158B2002803DD3D4957
:1044E0005D1E81F844519AF847315AB2172A40F3B9
:1044F0001D829AF846114BB2002B03DD354A481E47
:1045000082F84601BAF8C450324B002D00F09C826C
:10451000DC69986D93F8492129B2E50195FBF1F426
:10452000C00155B290FBF1F10D2DDC61996540F3AE
:10453000F9819AF8483158B2002803DD254D591EFB
:1045400085F848119AF84B315AB2172A40F3E581A1
:104550009AF84A516BB2002B03DD1E4A681E82F89E
:104560004A01BAF8D0101B4D002900F06F82EB6DA4
:104570002C6A95F84D2109B2E401D80194FBF1F4BD
:1045800090FBF1F351B20D292C62EB6502DC013294
:1045900085F84D219AF84C5168B2002803DD0D4989
:1045A0006B1E81F84C319AF84F516AB2172A40F3CA
:1045B000C6819AF84E114DB2002D03DD054A481E02
:1045C00082F84E01BAF8DC10024B002900F0348268
:1045D00002E000BF780500201D6E5C6A93F851214F
:1045E00009B2E401E80194FBF1F490FBF1F551B25A
:1045F0000D295C621D6602DC013283F851219AF8B4
:10460000503158B2002803DDB5495D1E81F8505184
:104610009AF853315AB2172A40F396819AF85211F8
:104620004BB2002B03DDAE4A481E82F85201BAF8A5
:10463000E850AB4B002D00F014829C6A586E93F842
:10464000552129B2E50195FBF1F4C00155B290FB6B
:10465000F1F10D2D9C62596602DC013283F855217F
:104660009AF8543158B2002803DD9D4D591E85F843
:1046700054119AF857315AB2172A40F36A819AF8BE
:1046800056516BB2002B03DD954A681E82F8560125
:10469000BAF8F410924D002900F0DA81AB6EEC6AA2
:1046A00095F8592109B2E401D80194FBF1F490FB8B
:1046B000F1F351B20D29EC62AB6602DC013285F8F0
:1046C00059219AF8585168B2002803DD84496B1EBD
:1046D00081F858319AF85B516AB2172A40F33E814B
:1046E0009AF85A114DB2002D03DD7D4A481E82F81A
:1046F0005A01BAF800117A4B002900F0AB81DD6E47
:104700001C6B93F85D2109B2E401E80194FBF1F41C
:1047100090FBF1F551B20D291C63DD6602DC01321C
:1047200083F85D219AF85C3158B2002803DD6C49AA
:104730005D1E81F85C519AF85F315AB2172A03DC8A
:10474000674D581C85F85F019AF85E114BB2002B3B
:1047500003DD634A481E82F85E01BAF80C51604BD3
:10476000002D00F079815C6B186F93F8612129B2FC
:10477000E50195FBF1F4C00155B290FBF1F10D2D6F
:104780005C63196702DC013283F861219AF86031B9
:1047900058B2002803DD524D591E85F860119AF871
:1047A00063315AB2172A03DC4D49581C81F8630162
:1047B0009AF862516BB2002B03DD494A681E82F8F9
:1047C0006201BAF81811464D002900F055826B6F4E
:1047D000AC6B95F8652109B2E401D80194FBF1F4C2
:1047E00090FBF1F351B20D29AC636B6702DC01322F
:1047F00085F865219AF8645168B2002803DD3849CC
:104800006B1E81F864319AF867516AB2172A03DC8B
:10481000334B681C83F867019AF866114DB2002D7E
:1048200003DD2F4A481E82F86601BAF824512C4B4A
:10483000002D00F01F82DC6B986F93F869112AB28B
:10484000E50195FBF2F4C0014DB290FBF2F20D2DA3
:10485000DC639A6740F387809AF8683158B2002881
:1048600003DD1F4A5D1E82F868519AF86B114BB246
:10487000172B03DC1A4D481C85F86B019AF86A1156
:104880004AB2002A03DD16484B1E80F86A310F2316
:10489000229DCAF80030B5F91410124B09B95A8A92
:1048A0009A8211480178002940F0D5812DB0BDE8E9
:1048B000F08F0B4B481C83F837015EE5013185F81A
:1048C00035114BE5064A4B1C82F8333126E50131A0
:1048D00082F8311113E5013283F839216DE500BF0B
:1048E00078050020200200209C0200205E49581C10
:1048F00081F83F019FE5013283F83D218CE55A4D57
:10490000581C85F83B0167E5574B681C83F8430149
:10491000C0E5013285F84121ADE55349581C81F8C5
:104920004B0115E6013283F8492102E64E4D581C31
:1049300085F84701DDE5013283F84521CAE54A4B98
:10494000681C83F84F0134E6474D581C85F8530125
:1049500064E64549581C81F8570190E6424B681CB3
:1049600083F85B01BCE6013183F8691174E7002527
:1049700089F80150FFF7B2BB02254FF000084FF055
:10498000010E03240B9521952494CDF834E045467F
:10499000CDF82480FFF7DCBB112109912AE4099DA1
:1049A000002D3FF49BAB19E44FF21424C0F2000435
:1049B00014F808708C46259708924F46C1469846D1
:1049C0002CAA531813F8081C219A4D1EE9B201EBCA
:1049D00041040AEB84030AEB810465681031AD18C9
:1049E0006560249A5AF821400CF1010EA5184AF886
:1049F0002150B3F87C402699259D0A19B3F88210FE
:104A000027926C1828942899279DA3F88210A3F860
:104A10007C500D9B5FFA8EFC0B9A6345C2EB000045
:104A20006146CDDC4346089AC846B946239F21E03B
:104A300003232DE702232BE7082329E7012327E798
:104A4000042325E7052323E7062321E707231FE7A0
:104A50000A231DE70B231BE70C2319E7034D2295BF
:104A600036E4092314E700BF780500202002002067
:104A7000239F00212CAC611811F8085C6C1EE5B274
:104A80000AEB850105F1100E05EB45044D680AEBB4
:104A9000840400FB07574F605AF82E10B4F87C705E
:104AA00000FB03150999C0194AF82E50A4F87C00A0
:104AB000783411293FF412AB4FF21425C0F20005EF
:104AC000678915F80800C11961810D9C002C7FF7DA
:104AD00005AB0127239D08EB070C21930021CDF89E
:104AE0002CC00D953B464FFA83FEC6457BDA2CA8B9
:104AF000411811F8084C00EB0E07651EE9B20120C1
:104B0000884017F8087C09900B9D781E0EF1010C67
:104B100042F28017C2F200076FEA0C046419C0B2B7
:104B200007EB4105099F04F0010488422395BFB2B9
:104B3000099477D9012404FA00F042F28014C2F2F9
:104B4000000434F81150284324F811000B9D0CF197
:104B50000100A842644646D0099DC5B12CAC04EBC7
:104B60000C0E1EF8085C6C1EE4B28C4264D842F253
:104B70008015C2F2000535F814C047EA0C0E25F87E
:104B800014E0DDF82CE00446013070452BD0239D65
:104B900023932CAB1C1914F8083C5C1EE4B28C4225
:104BA00036D9012303FA04F4B5F800E04EEA040311
:104BB0002B802CAC231813F808CC01300CF1FF34F7
:104BC0000990E0B2884218D9012303FA00F0B5F841
:104BD00000C04CEA00042C80099CDDF82CE0601C2D
:104BE0007045D6D1239B1946013343457FF47BAFF3
:104BF0000D9F219B2397FFF771BA42F28013C2F2F7
:104C0000000333F8104047EA040E23F810E0E3E70E
:104C100042F2801CC2F2000C3CF814303B432CF8EA
:104C20001430C6E742F28014C2F2000434F8105087
:104C30003D4324F8105089E74FF0010505FA04F4CC
:104C400042F28015C2F2000535F811C04CEA0404A6
:104C500025F8114095E74622002304200F210292F7
:104C6000032203928DE8030004930593034A03F0A3
:104C700059FA1BE60E230BE60D2309E680210020DE
:104C80002DE9F04F82464FEA400B40F27854C2F2D1
:104C900000044FEA8A055844B5B004EB8000671958
:104CA0000AF110060A962B95B0F97C607D68DDF854
:104CB000289005FB06F5884600F1780154F8290094
:104CC00040F278594FEA480CC2F200090CEB080494
:104CD000CDF814C009EB880C0695DCF8045000FBF5
:104CE00006F0079540F2785509EB8404C2F20005FE
:104CF00008F1100955F82950DDF818C009900895F9
:104D0000B4F97C00079DDDF8249005FB00C50695ED
:104D1000089D361805FB009906980C9390FBF6FC4D
:104D20000FFA8CF599FBF6F630B27D600A9E40F2E0
:104D30007857C2F2000747F82600914612680AF138
:104D40004C0C47F82C200AF10100B4F87E60329038
:104D5000B1F90650329B32B27834D8B29542CDF8D0
:104D6000C4C01C9004DA657A247ACE804D720C722D
:104D7000059E40F27850C2F200000BEB0A0106EBF0
:104D8000080200EB810300EB8202B3F87C10B2F85A
:104D90007C40B3F88250B2F8820008F10106641832
:104DA000401971B2A3F87C40A3F8820000230E29B9
:104DB0003096A2F87C304EDC3446DDF814C0594EF3
:104DC00001270CEB06031A880BEB060042FA01F2EE
:104DD000D20704EA070600F1E7830125621954B2FD
:104DE0000E2C38DC002E00F0EB831E886A1846FA81
:104DF00002F6F40700F1CD83309E0135721954B2EA
:104E00000E2CD8BFB44626DC1E886A1C6D1846FAE4
:104E100005F616F0010F02EB010408D007FA05F5BC
:104E200006882E4306801E8826EA05051D801D88FB
:104E300045FA04F5ED0708D507FA04F4058825437B
:104E400005801D8825EA04041C80551C0CEB050216
:104E500054B20E2CD8DDB8F1000F69DD012101FA42
:104E600008F601FA0AF72F48F443034633F8022BF9
:104E70000BEB00053098324200EA0100BFB2A4B249
:104E80008C46059009D0BAF1000F40F3A4833A4351
:104E900023F8022C224023F8022C30980222012110
:104EA000824245D0059848B119881F4B314240F0E5
:104EB0006683309811460132824239D0CDF8148091
:104EC000DDF8C08016E0384323F8020C204023F8B8
:104ED000020C33F8021B501C314207D0924518DDFA
:104EE000394323F8021C214023F8021C421C42458E
:104EF00001461BD033F8020B3042EAD08A45E2DC8F
:104F0000E4DA0CFA01F128880143298033F8020C15
:104F1000DCE7E8DA0CFA02F229880A432A8033F83F
:104F2000021CE0E78021002084210020DDF81480AD
:104F300099F8000099F9013042B293421590C0F2FD
:104F4000F4829A4FDA4497F9016097F900100596B8
:104F500097F9020097F90340DDF814C05518069040
:104F600002EB0C0702EB000C101909956E1C7D1C5E
:104F70000CF1010700F1010C0698641A2894441AF8
:104F80000598C2EB021229940892441A289A0998AB
:104F90002A94C0EBC004C2EBC2002A9A0594C2EB6B
:104FA000C20206924FF22022C0F2000292F90320C0
:104FB000CCEB0C1C11924FF22022C0F2000292F9AD
:104FC0000220C6EB061612924FF22022C0F2000217
:104FD00092F90120CDF81CC013924FF22022C0F2AA
:104FE000000292F90020DDF8A4C01492089A76001D
:104FF00052001892059A17969600CCEBCC04C5EB9C
:10500000051599F903C00B96079A6D005600C7EB7A
:105010000717199540F27852069D7F00C2F20002F0
:105020001A978000A400AF00C1F1010102EB8A0AC7
:105030001B962C902D942E972F91CDF858A0CDF83B
:10504000CC80CDF81C90079E96F802B04FFA8BF4F6
:105050006445059400F31D822F9B0998DDF8449068
:10506000DDF84880DDF84CA0149D04EB0A011A1805
:1050700009EB040704EB08002B19DDF8B0900B9C3A
:10508000DDF8B48004EB090A1B9D04EB0809DDF888
:105090006880C2EB021608967E1900EB0805DDF861
:1050A0005C802E9A9844CDF83490CDF8188004EBAB
:1050B0000209DDF82080059A5744DDF834A002EBA0
:1050C0004802089200EB0A08189A0B98DDF814A021
:1050D0001B1802EB0A00DDF8A0A0099A199C5244A3
:1050E0001F92DDF8A4A0099A0C1952441E92DDF813
:1050F000A8A0099A894452441D9241F68C5A089AF4
:10510000C2F2000A5244089242F2D852C2F200029D
:1051100002EB4707229740F68067C2F2000707EBD1
:105120004607239740F68067C2F2000707EB450A5F
:1051300040F6806702EB4808C2F20007CDF8908085
:1051400007EB440802EB490902EB4303CDF894A0B6
:10515000CDF89C80DDF818A0DDF8188040F680625C
:1051600041F68C57C2F20007C2F20002CDF89890C7
:1051700002EB4A0908EB070ACDF840A040F278524A
:10518000DDF8ACA0C2F200020021CDF88490F6193F
:1051900002EB0A09ED19E4192093C0190B460D968C
:1051A0000E950F94089ACDF818900EE01CF20000AE
:1051B000DDF81CC055709CF903C003EB0B056CB205
:1051C00001320231A445C0F26081577801337E1E5E
:1051D000F5B26CB2102CF0DDC71897F83C80C65CB5
:1051E000177848EA0609967849EA07073743FE0721
:1051F000E3D5112CDCD11C9D0D9C5570DDF814A05D
:105200005F1EDDF84480E65C574407EB0809002E7A
:1052100045D10C9D002D00F0A081239E7518B5F995
:105220000240002C3BDD1F9E169DDDF8188006FB1A
:1052300004FA783509FB04F9B5F804C0D8F804601D
:10524000089540F278580A9DC2F2000858F8255097
:105250004FEACA1A0FFA8CF84FEAC91906FB08A6DA
:1052600005FB08956444A4B2DDF820800FFA84FCA5
:10527000A8F8044096FBFCF695FBFCF5DDF834A09D
:10528000DDF81890DDF8288040F2785C1124C2F235
:10529000000C0AF80340C9F804604CF82850DDF807
:1052A00038A0DDF848901AF8036007EB0908002ED3
:1052B00045D10C9D002D00F05381259E7518B5F940
:1052C0000240002C3BDD1E9E169D08FB04F9DDF814
:1052D000188006FB04FA7835B5F804C0D8F80460E5
:1052E000089540F278580A9DC2F2000858F82550F7
:1052F0004FEACA1A0FFA8CF84FEAC91906FB08A63A
:1053000005FB08956444A4B2DDF820800FFA84FC04
:10531000A8F8044096FBFCF695FBFCF5DDF838A0F8
:10532000DDF81890DDF8288040F2785C1124C2F294
:10533000000C0AF80340C9F804604CF82850DDF866
:105340003CA0DDF84C901AF8036007EB0908002E2A
:1053500045D10C9D002D00F00681279E7518B5F9EA
:105360000240002C3BDD1D9E169D08FB04F9DDF874
:10537000188006FB04FA7835B5F804C0D8F8046044
:10538000089540F278580A9DC2F2000858F8255056
:105390004FEACA1A0FFA8CF84FEAC91906FB08A699
:1053A00005FB08956444A4B2DDF820800FFA84FC64
:1053B000A8F8044096FBFCF695FBFCF5DDF83CA054
:1053C000DDF81890DDF8288040F2785C1124C2F2F4
:1053D000000C0AF80340C9F804604CF82850DDF8C6
:1053E00040A01AF80360DDF850A00AEB0709002E70
:1053F00040D10C9F002F00F0B980219C6618B6F9AF
:105400000240002C40F3B780099DDDF8188005FBB1
:1054100004FA169F09FB04F9D8F804600A9D40F2CB
:105420007858B7F87CC0C2F2000858F825504FEA07
:10543000CA1A0FFA8CF84FEAC91906FB08A605FB31
:1054400008956444A4B2A7F87C400FFA84FC109F2E
:10545000DDF81880DDF8289040F2785A96FBFCF6CB
:1054600095FBFCF51124C2F2000AFC54C8F8046054
:105470004AF82950079E03EB0B0596F903C06CB25E
:1054800001320231A445BFF6A0AEDDF81C8098F9C8
:1054900001301598189D471CFEB20B9F1E351C3716
:1054A00072B2179C099915961895199E1B9D0B971A
:1054B0001A9F1E34481C1E361E371E359A421794FA
:1054C000099019961A971B957FF7BDADDDF81C90D2
:1054D000DDF8CC8099F8004062B29A4225DC6B4D31
:1054E0001C9F501C99F8022051B2614517DCC0EB9B
:1054F00000134E1C06EB43014B1913F8016B0132EC
:10550000711E4EB2464508BF03F8017CD2B208BFF7
:1055100099F903C051B26145EFDD99F901300134C9
:10552000E4B262B201309A42DCDD594D594C3299F5
:10553000309A2B7821806280002B54D199F9000099
:10554000208099F90110618099F90220A28099F9CF
:105550000330E38035B0BDE8F08F229C645E60E6E6
:10556000249C645EADE6269C645EFAE6209D6C5E3B
:10557000002C3FF749AF079F97F903C01DE6BAF12A
:10558000010F20DD394323F8021C214023F8021CBF
:105590008FE407FA02F6048846EA040202801C88B7
:1055A00024EA06061E8027E407FA01F5048845EA86
:1055B000040202801C8824EA05051D80309C0CE44E
:1055C000DDF8C0C020E4E0DA298842EA0100288042
:1055D00033F8021CD9E7BFF65DAC2A881143298055
:1055E00033F8022C56E4072002210C2202F01AFDA7
:1055F00040F27857319EC2F2000707EB860393F919
:10560000010093F9021093F90320BA462B7817F999
:1056100026706080204E2780A180E280002B8DD0F4
:1056200007200421002202F0FDFC08F14C0006EBEB
:10563000800292F9021016F920602B7892F901008D
:1056400092F9032026806080A180E280002B3FF445
:1056500075AF07200421002202F0E4FC99F9000054
:105660002978208099F90120628099F90230A3807D
:1056700099F90300E08000293FF46CAF0720042172
:10568000002235B0BDE8F04F02F0CCBC8C1D0020EC
:105690009C02002050020020780500202DE9F04FE8
:1056A0004FF0000C91B0DFF8FCB4DFF8FCA40590DB
:1056B000654605EB45030BEB8300B0F97C207830A1
:1056C000002A00F0298290F90810437A4C1E4E1CE3
:1056D000B4420494099600F31F825BB203F1FF3CCD
:1056E000B046CDF80CC0C4EBC40642F2D85C03EB64
:1056F0008606C2F2000C0CEB4606C1EB01177F00D8
:10570000C8EB0810029641F68C5840F68066FC18EB
:1057100003EB4000C1EBC102C2F20008C3EBC3714E
:10572000C2F20006474406EB440806EB400448007A
:1057300042F2D85103F1010903EB8202C2F20001E7
:105740004FEA490C01EB42025B000A940690CDF847
:1057500030C00B920D93039E4E4500F3CF81BC19D0
:105760006078C6EB090C069A029C069E411E08EB67
:105770000203A0190E2907930890CCF3400C55D8CA
:105780008D4253D0059A002A00F0CD8105EB4503E8
:105790000BEB8304B4F97E60B8F90020BAF87E0000
:1057A000B24243DB06FB00F30A9C9B11B4F9006094
:1057B0009E423BDD079A0C98145E9C4236DDA9425E
:1057C00002DA2E460D46314605F14C0301F14C023A
:1057D0005BF822601BF8232074B250B284420E960C
:1057E0000BEB830301DD8DF838205E789DF93920BD
:1057F00074B2A24201DA8DF839609E789DF93A20A0
:1058000070B2824201DD8DF83A60DB789DF93B4051
:105810005EB2B44201DA8DF83B3028460EAA059BF1
:10582000CDF804C0FFF72CFADDF804C00399042674
:105830008C1C4C4500F36281BCF1000F60D03A191A
:105840005078411E0E2956D88D4254D0059B002B0E
:1058500000F0848105EB45030BEB8300B0F97E304B
:10586000B8F90420BAF87E009A4244DB03FB00F347
:10587000DDF828C09B11BCF904209A423BDD079853
:10588000DDF830C030F90C209A4234DDA94202DA4A
:105890002B460D46194605F14C0301F14C005BF80F
:1058A00020C01BF823204FFA8CFE50B28645CDF85D
:1058B00038C00BEB830301DD8DF838205A789DF951
:1058C00039C050B2844501DA8DF839209A789DF9B3
:1058D0003AE050B2864501DD8DF83A20DB789DF93B
:1058E0003B005AB2904201DA8DF83B3028460EAAAE
:1058F000059BFFF7C5F9023404364C4500F3FE80E2
:10590000DDF814C0B6E0B3F97E3038F90620BAF8F5
:105910007E009A4248DB03FB00F30A9A9B11905FDA
:10592000984241DD07980C9A805E009098423BDDDA
:10593000A94202DA2B460D46194601F14C005BF8EC
:10594000202005F14C034FFA82FE1BF82300CDF80E
:1059500000E00E92009A4FFA80FE0BEB8303724533
:105960005A789DF939E0C8BF8DF8380050B28645A5
:10597000B8BF8DF839209A789DF93AE0DB7850B2BB
:1059800086459DF93B00C8BF8DF83A205AB2904237
:10599000B8BF8DF83B30284663460EAACDF804C048
:1059A000FFF76EF9DDF804C0023439194B7804367C
:1059B000591E0E295AD88D4258D0BCF1000F00F064
:1059C000818005EB45030BEB8300B0F97E3038F99D
:1059D0000620BAF87E009A4248DB03FB00F30A9ADD
:1059E0009B11905F984241DD07980C9A805E009071
:1059F00098423BDDA94202DA2B460D46194601F1D9
:105A00004C025BF8222005F14C034FFA82FE1BF892
:105A10002300CDF800E00E92009A4FFA80FE724506
:105A20000BEB830301DD8DF838005A789DF939E0DE
:105A300050B2864501DA8DF839209A789DF93AE01E
:105A400050B2864501DD8DF83A20DB789DF93B00A8
:105A50005AB2904201DA8DF83B30634628460EAACE
:105A6000CDF804C0FFF70CF9DDF804C002340436A9
:105A70004C4543DC39194B78591E0E2994D88D4278
:105A800092D005EB45000BEB8003BCF1000F7FF4D7
:105A90003AAF029AB3F97E30901930F9022CBAF875
:105AA0007E00934280DC03FB00F30B9A9B1190195C
:105AB00030F9022C9A427FF777AF08980D9A805EF2
:105AC000009033E7029A05EB45000BEB8003901939
:105AD00030F9022CB3F97E30BAF87E009342C5DC6F
